:100000000C946E000C9454040C942D040C949600E3
:100010000C9496000C9496000C9496000C94960008
:100020000C9496000C9496000C9496000C949600F8
:100030000C9496000C9496000C9496000C949600E8
:100040000C94E3030C9421060C947B020C9455024F
:100050000C9496000C9496000C9496000C949600C8
:100060000C9496000C949600FC115E126112A6127C
:10007000241349137B13AF11AF11AF11F313000019
:100080000000240027002A000000000023002600B2
:10009000290000000008000201000003040700001E
:1000A000000000000000010204081020408001024E
:1000B00004081020010204081020000000002500A0
:1000C00028002B00040404040404040402020202B5
:1000D00002020303030303037118641811241FBEF3
:1000E000CFEFD8E0DEBFCDBF11E0A0E0B1E0E8EA9D
:1000F000F6E302C005900D92A634B107D9F723E0CC
:10010000A6E4B1E001C01D92AB38B207E1F710E000
:10011000CDE6D0E004C02197FE010E940F1ACC3634
:10012000D107C9F70E94460F0C94471B0C9400009E
:10013000FC01918D828D981761F0828DDF01A80FEF
:10014000B11D5D968C91928D9F5F9F73928F90E011
:1001500008958FEF9FEF0895FC01918D828D981780
:1001600031F0828DE80FF11D858D90E008958FEFBD
:100170009FEF0895FC01918D228D892F90E0805C86
:100180009F4F821B91098F73992708958AEC92E003
:100190000E94BA0021E0892B09F420E0822F089503
:1001A000FC01848DDF01A80FB11DA35ABF4F2C9114
:1001B000848D90E001968F739927848FA689B789E3
:1001C0002C93A089B1898C9180648C93938D848DBC
:1001D000981306C00288F389E02D80818F7D80838B
:1001E0000895EF92FF920F931F93CF93DF93EC014B
:1001F00081E0888F9B8D8C8D981305C0E889F989E3
:10020000808185FD24C0F62E0B8D10E00F5F1F4FFF
:100210000F731127E02E8C8DE8120CC00FB607FC6F
:10022000FACFE889F989808185FFF5CFCE010E9458
:10023000D000F1CF8B8DFE01E80FF11DE35AFF4F87
:10024000F0820B8FEA89FB898081806207C0EE898A
:10025000FF896083E889F98980818064808381E0F7
:1002600090E0DF91CF911F910F91FF90EF90089553
:10027000CF93DF93EC01888D8823C9F0EA89FB894D
:10028000808185FD05C0A889B9898C9186FD0FC044
:100290000FB607FCF5CF808185FFF2CFA889B98919
:1002A0008C9185FFEDCFCE010E94D000E7CFDF918A
:1002B000CF91089580E090E0892B29F00E94C6003C
:1002C00081110C9400000895833081F028F481306E
:1002D00099F08230A1F008958730A9F08830B9F004
:1002E0008430D1F4809180008F7D03C080918000A4
:1002F0008F7780938000089584B58F7702C084B58E
:100300008F7D84BD08958091B0008F7703C0809168
:10031000B0008F7D8093B0000895CF93DF93282F96
:1003200030E0F901EE56FF4F8491F901EA55FF4F95
:10033000D491F901EC53FF4FC491CC2391F081117A
:100340000E946401EC2FF0E0EE0FFF1FE857FF4F13
:10035000A591B491EC91ED2381E090E021F480E04F
:1003600002C080E090E0DF91CF910895089584ED80
:100370008093BC008091BC0084FDFCCF1092A6024B
:1003800008950895E091690280916802E81730F4B9
:10039000F0E0E85BFD4F808190E008958FEF9FEFE4
:1003A00008959091690280916802981750F4E92F9E
:1003B000F0E0E85BFD4F208130E09F5F90936902A1
:1003C00002C02FEF3FEFC90108958091680290E0CD
:1003D00020916902821B91090895CF92DF92EF92DA
:1003E000FF920F931F93CF93DF937C018A0180913B
:1003F000A702882389F0EB016B01C40ED51ECC1532
:10040000DD05F1F06991D701ED91FC910190F0814A
:10041000E02DC7010995F3CF842F413288F49091E4
:10042000A602943069F44093AF01FB012FE831E05C
:10043000D9019A2F921B981718F491919D93F9CF97
:10044000C801DF91CF911F910F91FF90EF90DF9046
:10045000CF9008952091A7022223C9F02091C902CC
:10046000203240F021E030E0FC013383228380E041
:1004700090E008958091A802E82FF0E0E755FD4F45
:1004800060838F5F8093A8028093C90209C0809126
:10049000A602843029F481E08093AF0160938F013C
:1004A00081E090E008950E94421B1F920F920FB6C8
:1004B0000F9211242F933F934F935F936F937F93EA
:1004C0008F939F93AF93BF93EF93FF938AEC92E048
:1004D0000E94D000FF91EF91BF91AF919F918F91BA
:1004E0007F916F915F914F913F912F910F900FBE30
:1004F0000F901F9018951F920F920FB60F92112414
:100500002F938F939F93EF93FF93E091DA02F091F3
:10051000DB028081E091E002F091E10282FD12C0F5
:1005200090818091E3028F5F8F732091E4028217A4
:1005300051F0E091E302F0E0E653FD4F958F809398
:10054000E30201C08081FF91EF919F918F912F91E4
:100550000F900FBE0F901F9018951F93CF93DF93AE
:10056000282F30E0F901EE56FF4F8491F901EA554A
:10057000FF4FD491F901EC53FF4FC491CC23C9F044
:10058000162F81110E946401EC2FF0E0EE0FFF1F87
:10059000E654FF4FA591B4918FB7F894111105C09F
:1005A0009C91ED2FE095E92302C0EC91ED2BEC93AB
:1005B0008FBFDF91CF911F910895CF93DF9390E08C
:1005C000FC01EA55FF4F2491FC01EC53FF4F84914D
:1005D000882361F190E0880F991FFC01E258FF4FDA
:1005E000C591D491FC01E654FF4FA591B4916111DE
:1005F00009C09FB7F8948881209582238883EC9165
:100600002E230BC0623061F49FB7F8943881822F9B
:10061000809583238883EC912E2B2C939FBF06C05B
:100620008FB7F894E8812E2B28838FBFDF91CF916D
:1006300008951F93CF93DF93182FEB0161E00E9481
:10064000DD02209711F460E004C0CF3FD10539F4FA
:1006500061E0812FDF91CF911F910C94AD02E12FCA
:10066000F0E0EE56FF4FE491E330F9F048F4E1306A
:10067000B9F0E230A1F584B5806284BDC8BD34C054
:10068000E730E9F0E83019F1E43049F58091800075
:10069000806280938000D0938B00C0938A0024C036
:1006A00084B5806884BDC7BD1FC08091800080680C
:1006B00080938000D0938900C093880015C08091FA
:1006C000B00080688093B000C093B3000DC08091EB
:1006D000B00080628093B000C093B40005C0C03801
:1006E000D1050CF0B5CFAFCFDF91CF911F91089519
:1006F0003FB7F8948091B5019091B601A091B701F0
:10070000B091B80126B5A89B05C02F3F19F00196FE
:10071000A11DB11D3FBFBA2FA92F982F8827820F87
:10072000911DA11DB11DBC01CD0143E0660F771FD6
:10073000881F991F4A95D1F708958F929F92AF9283
:10074000BF92CF92DF92EF92FF926B017C010E94E9
:1007500078034B015C01C114D104E104F104F1F010
:100760000E947803DC01CB0188199909AA09BB0909
:10077000883E9340A105B10570F321E0C21AD1086B
:10078000E108F10888EE880E83E0981EA11CB11CD8
:10079000C114D104E104F10419F7DDCFFF90EF900B
:1007A000DF90CF90BF90AF909F908F9008952FB71C
:1007B000F8946091B1017091B2018091B301909170
:1007C000B4012FBF08951F920F920FB60F921124FC
:1007D0002F933F938F939F93AF93BF938091B101DA
:1007E0009091B201A091B301B091B4013091B001E8
:1007F00026E0230F2D3720F40296A11DB11D05C060
:1008000029E8230F0396A11DB11D2093B001809309
:10081000B1019093B201A093B301B093B401809160
:10082000B5019091B601A091B701B091B8010196C0
:10083000A11DB11D8093B5019093B601A093B7019E
:10084000B093B801BF91AF919F918F913F912F913C
:100850000F900FBE0F901F9018951F920F920FB61A
:100860000F9211242F933F934F935F936F937F9336
:100870008F939F93AF93BF93EF93FF93E091090101
:10088000F0910A010995FF91EF91BF91AF919F916E
:100890008F917F916F915F914F913F912F910F9029
:1008A0000FBE0F901F9018951F920F920FB60F92C8
:1008B00011242F933F934F935F936F937F938F9365
:1008C0009F93AF93BF93EF93FF93E0910701F09154
:1008D00008010995FF91EF91BF91AF919F918F9181
:1008E0007F916F915F914F913F912F910F900FBE2C
:1008F0000F901F9018958091BC0087FF76C0809163
:10090000B900887F883211F170F48031E1F030F461
:10091000882309F466C08830B1F008958831B1F0B9
:10092000803239F108958034B9F128F4803309F127
:10093000883311F10895803519F18835C9F188346B
:1009400009F053C050C08091810210C09091A30261
:100950008091A2029817C0F5E091A30281E08E0F6A
:100960008093A302F0E0EE57FD4F80818093BB009F
:1009700019C08093A40237C08093A40284EC2CC0D9
:10098000E091A30281E08E0F8093A3028091BB00CF
:10099000F0E0EE57FD4F80839091A3028091A20278
:1009A000981710F484EC01C084E88093BC0008958B
:1009B000E091A30281E08E0F8093A3028091BB009F
:1009C000F0E0EE57FD4F80838091A50281110BC0AE
:1009D00081E08093800284EA8093BC001092A6029A
:1009E00008951092A4020C94B70108951092A602E3
:1009F00081E08093A5021092800261E082E10E9472
:100A0000AD0261E083E10E94AD02E9EBF0E080819C
:100A10008E7F808380818D7F808382E08093B80089
:100A200084E48093BC000895FB0160810E949919C1
:100A300081E090E00895CF93DF93EB010E9491193C
:100A4000888381E090E0DF91CF910895CF92DF928B
:100A5000EF92FF92CF93DF93C42ED12CE12CF12C97
:100A6000D62AE82AC0E0D0E0809173039091740305
:100A7000C817D90728F4B701A601CE010E94500D6E
:100A80002196CB31D10581F78091790390917A033A
:100A9000892B41F0DF91CF91FF90EF90DF90CF90C5
:100AA0000C94180CDF91CF91FF90EF90DF90CF90D6
:100AB0000895362FE42F8C3191052CF497FF05C053
:100AC00080E090E002C08BE190E060917303709150
:100AD00074038617970740F4422F50E060E070E0FF
:100AE0005E2B632B0E94500D8091790390917A03C5
:100AF000892B11F00C94180C089520E030E040E0B0
:100B000050E060E070E082E090E00E94590520E053
:100B100030E040E050E060E070E081E090E00C9474
:100B20005905EF92FF920F931F93CF93DF93E42E1B
:100B3000F12C062F10E0C82FD0E09701A801BE01CC
:100B400082E090E00E9459059701A801BE0181E072
:100B500090E0DF91CF911F910F91FF90EF900C9457
:100B600059050F931F93CF93DF938C01EB018F3FB8
:100B7000910509F03CF401308FEF18072CF401E0E7
:100B80001FEF02C00FEF10E0CF3FD10509F03CF49A
:100B9000C1308FEFD8072CF4C1E0DFEF02C0CFEFF8
:100BA000D0E010938E0100938D01D0938C01C093FF
:100BB0008B0117FF02C060E001C061E08EE00E947F
:100BC000AD02D7FF02C061E001C060E08FE00E948B
:100BD000AD02B80117FF03C071956195710986E0F8
:100BE0000E941903BE01D7FF03C071956195710979
:100BF00085E0DF91CF911F910F910C941903CF9352
:100C000080918A01811113C08EE680934601109273
:100C10006A02C1E0C0936B0262E00E94B30DC09310
:100C20008A0165E070E080E090E00E949D0388E02A
:100C30000E948D0121E0892B09F020E0822FCF91C5
:100C400008951F920F920FB60F9211248F93EF9376
:100C5000FF93E0915301F0E08EB5E158FE4F8083A1
:100C6000E0915301F0E0E85BFE4F80818EBD81E0B2
:100C700080935201809153018F5F80935301809143
:100C800053018B3020F01CBC8CB58F778CBDFF914D
:100C9000EF918F910F900FBE0F901F90189580913C
:100CA0005201882309F453C08AE00E948D01019704
:100CB00009F04DC01CBC8CB58F778CBD80917F0135
:100CC000F0918001709181016091820150918301C6
:100CD0004091840130918501209186019091870196
:100CE000E09188018F2787278627852784278327F8
:100CF000822789278E1731F18FEF80937F018091B2
:100D00007F01823891F410920601609181018091F7
:100D1000800170E060587109660F771F90E080587D
:100D20009109880F991F0E94B10585E68EBD10922A
:100D30005301109252018CB580648CBD8CB58068D3
:100D40008CBD0895809188018111D9CFD5CF0895A8
:100D500083E48093460163E00E94810EEAE6F2E0BC
:100D6000818190E0982F88272281338130937E0102
:100D7000822B08958A3020F0843718F083E701C071
:100D80008AE080937D0180936A0261E086E30C949F
:100D9000B30D8093470280936A0261E085E30C946F
:100DA000B30D8093460280936A0261E084E30C9461
:100DB000B30D23E320934601EAE6F2E090838183BA
:100DC00062E083E30C94B30D29E220934601EAE646
:100DD000F2E09083818362E089E20C94B30D80E0BD
:100DE00090E00C94E40681E2809346016DE00E945D
:100DF000810EEAE6F2E0818190E0982F8827228137
:100E0000822B9093450280934402838190E0982F37
:100E100088272481822B909343028093420285810C
:100E200090E0982F88272681822B90935D018093F4
:100E30005C01878190E0982F88272085822B9093F2
:100E4000690180936801818590E0982F8827228529
:100E5000822B9093650180936401838590E0982FA5
:100E600088272485822B90935901809358010895F7
:100E700080E28093460167E00E94810EEAE6F2E09C
:100E8000818190E0982F88272281822B90936101A5
:100E900080936001838190E0982F88272481822BA2
:100EA00090935F0180935E01858190E0982F882761
:100EB0002681822B909355018093540108950F93BE
:100EC0001F93CF93DF938FE68093460185E0809355
:100ED0006A0261E08FE60E94B30DC4E0D0E013E146
:100EE00002E080ED97E00E94E40644E150E064E116
:100EF00070E084E190E00E94260510934601009383
:100F00006A0261E083E10E94B30D64EF71E080E06A
:100F100090E00E949D030E94EF0640E050E060E0F8
:100F200070E080E090E00E94260510934601109248
:100F30006A0261E083E10E94B30D64EF71E080E03A
:100F400090E00E949D03219761F688EB9BE00E9450
:100F5000D9066AE070E080E090E00E949D0340E0E6
:100F600050E060E070E084E190E00E94260568EEC9
:100F700073E080E090E00E949D03C4E0D0E080E553
:100F80000E94BA0660E971E080E090E00E949D0353
:100F90008EE60E94BA0660E971E080E090E00E946F
:100FA0009D03219761F768EE73E080E090E00E9476
:100FB0009D0340E050E064E170E080E090E00E943A
:100FC0002605C4E0D0E082E30E94C90660E971E032
:100FD00080E090E00E949D038AE50E94C90660E9D6
:100FE00071E080E090E00E949D03219761F768EE38
:100FF00073E080E090E00E949D0344E150E060E0F7
:1010000070E080E090E00E942605C4E0D0E088E235
:101010000E94D10660E971E080E090E00E949D03AB
:1010200084E60E94D10660E971E080E090E00E94D1
:101030009D03219761F768EE73E080E090E00E94E5
:101040009D0347E050E067E070E087E090E0DF91CB
:10105000CF911F910F910C9426051F93CF93DF938F
:10106000C8ECD0E012E362E370E080E090E00E9420
:101070009D031093460162E082E30E94810E8091FD
:101080006B0280934102982F91709093400281FBF4
:10109000992790F990933F0282FB882780F98093EB
:1010A0003E0280914102882311F02197E1F6DF9101
:1010B000CF911F9108958F929F92AF92BF92CF923E
:1010C000DF92EF92FF920F931F93CF93DF9388EEFF
:1010D00093E00E94D9068EE10E94C9060E942D0865
:1010E00088EB9BE00E94D90668E270E080E090E027
:1010F0000E949D030E94A806EC010E94F10D88E267
:101100000E94C90665E570E080E090E00E949D03C2
:101110000E94A806AE01DD0F660B770B4C01092E6D
:10112000000CAA08BB08840E951EA61EB71E0E94BE
:10113000F10D82E30E94C90665E570E080E090E071
:101140000E949D030E94A8068C01092E000C220B10
:10115000330B800E911EA21EB31E0E94F10D8CE374
:101160000E94C90665E570E080E090E00E949D0362
:101170000E94A8068C01092E000C220B330B800E56
:10118000911EA21EB31E0E94F10D86E40E94C906A4
:1011900065E570E080E090E00E949D030E94A80653
:1011A0008C01092E000C220B330B800E911EA21E07
:1011B000B31E0E94F10D80E50E94C90665E570E04E
:1011C00080E090E00E949D030E94A806AC01092ED9
:1011D000000C660B770B840E951EA61EB71E0E9490
:1011E000F10D8AE50E94C90665E570E080E090E0B7
:1011F0000E949D030E94A8060E94F10D84E60E94B1
:10120000C90665E570E080E090E00E949D030E94C1
:10121000A806EC010E94F10D8EE60E94C90665E564
:1012200070E080E090E00E949D030E94A806AE015D
:10123000DD0F660B770B6C01092E000CEE08FF0822
:10124000C40ED51EE61EF71E0E94F10D88E70E940F
:10125000C90665E570E080E090E00E949D030E9471
:10126000A8068C01092E000C220B330BC00ED11ED8
:10127000E21EF31E0E94F10D82E80E94C90665E598
:1012800070E080E090E00E949D030E94A8068C011F
:10129000092E000C220B330BC00ED11EE21EF31ED2
:1012A0000E94F10D8CE80E94C90665E570E080E0BF
:1012B00090E00E949D030E94A8068C01092E000C5C
:1012C000220B330BC00ED11EE21EF31E0E94F10D45
:1012D00086E90E94C90665E570E080E090E00E9422
:1012E0009D030E94A8068C01092E000C220B330BD3
:1012F000C00ED11EE21EF31E0E94F10D88EE93E097
:101300000E94D9068AE50E94C9060E942D0881E044
:101310008C149D04AE04BF040CF480E0DF91CF91E7
:101320001F910F91FF90EF90DF90CF90BF90AF9003
:101330009F908F9008956EE170E080E090E00E94B1
:101340009D038FE1809346016DE00E94810E8091A4
:101350006B0290E0982F882720916C02822B90934B
:1013600045028093440280916D0290E0982F882777
:1013700020916E02822B90934302809342028091CF
:101380006F0290E0982F882720917002822B909313
:101390005D0180935C018091710290E0982F882715
:1013A00020917202822B9093690180936801809151
:1013B000730290E0982F882720917402822B9093DB
:1013C0006501809364018091750290E0982F8827D1
:1013D00020917602822B909359018093580180913D
:1013E00068019091690190936701809366018091F3
:1013F00064019091650190936301809362018091F3
:101400005C0190915D0190935B0180935A01809102
:10141000580190915901909357018093560185E3AB
:1014200091E00E94070E6091680170916901072E9A
:10143000000C880B990B97FF03C00E945A0E03C043
:101440004AE00E94190E80E491E00E94070E60912C
:10145000640170916501072E000C880B990B97FFB2
:1014600003C00E945A0E03C04AE00E94190E82E493
:1014700091E00E94070E64E670E080E090E00C943A
:101480009D030F931F93CF93DF9362E070E080E0A2
:1014900090E00E94220F162F88EB9BE00E94D90655
:1014A000D2E068EB7BE080E090E00E94220FDC015C
:1014B000CB0188519C4FAF4FBF4F0E94E40660E5BF
:1014C00070E080E090E00E94220F062F60E570E05F
:1014D00080E090E00E94220FC62F60E570E080E07F
:1014E00090E00E94220F462F50E06C2F70E0802F7A
:1014F00090E00E94260564E670E080E090E00E94A3
:10150000220FC62F64E670E080E090E00E94220F78
:10151000062F64E670E080E090E00E94220F462FE4
:10152000602F8C2F0E94910586E90E94D10611231D
:1015300041F086E90E94C90666E07FEF8AEF90E0FD
:1015400007C08EE10E94C9066AEF70E086E09FEF57
:101550000E94B10560E570E080E090E00E949D038C
:101560000E94EF0660E070E080E090E00E94B1052C
:1015700066E970E080E090E00E949D0340E050E06A
:1015800060E070E080E090E00E9426058AE50E941D
:10159000C90684E60E94D1066AEF70E080E090E020
:1015A0000E949D03D13011F0D1E07BCF40E050E0AC
:1015B00060E070E080E090E00E9426054FE060E08F
:1015C00080E0DF91CF911F910F910C9491050F93C3
:1015D0001F93CF93DF93C6E0D0E068EB7BE080E021
:1015E00090E00E94220FDC01CB0188519C4FAF4F4D
:1015F000BF4F0E94E40660E570E080E090E00E944A
:10160000220F062F60E570E080E090E00E94220F3C
:10161000162F60E570E080E090E00E94220F462FD8
:1016200050E0612F70E0802F90E00E94260564E674
:1016300070E080E090E00E94220F162F64E670E0D8
:1016400080E090E00E94220F062F64E670E080E0C8
:1016500090E00E94220F462F602F812F0E9491055B
:101660006AEF70E086E09FEF0E94B1056CE370E0E6
:1016700080E090E00E949D0368EB7BE080E090E0DA
:101680000E94220FDC01CB0188519C4FAF4FBF4F0E
:101690000E94E40660E570E080E090E00E94220F86
:1016A000062F60E570E080E090E00E94220F162F88
:1016B00060E570E080E090E00E94220F462F50E04D
:1016C000612F70E0802F90E00E94260564E670E0B4
:1016D00080E090E00E94220F162F64E670E080E028
:1016E00090E00E94220F062F64E670E080E090E018
:1016F0000E94220F462F602F812F0E94910566E0E5
:101700007FEF8AEF90E00E94B1056CE370E080E02B
:1017100090E00E949D03219709F05FCF60E070E0A8
:1017200080E090E00E94B1050E94EF0640E050E0AA
:1017300060E070E080E090E00E9426054FE060E00D
:1017400080E0DF91CF911F910F910C9491050F9341
:101750001F93CF93DF931F92CDB7DEB71091C902CD
:1017600000918603113208F052C08091A6028823AE
:1017700019F00E947B04F9CF92E09093A60291E0C9
:101780009093A5029FEF9093A4021092A30210934E
:10179000A202A9EAB2E022E832E0F9019E2F921BF0
:1017A000911718F49D919193F9CF10928102209195
:1017B0008102902F990F922B909381029091800239
:1017C000913059F410928002909181029093BB0065
:1017D00095EC9093BC0094EC01C094EE9093BC0007
:1017E0009091A602923029F489830E947B0489811A
:1017F000F7CF9091A4029F3F79F08091A4028032AC
:1018000041F08091A402803331F084E005C081E092
:1018100003C082E001C083E01092A8021092C902C6
:101820001092A7020F90DF91CF911F910F91089511
:101830000F931F93CF93DF93CDB7DEB729970FB6E2
:10184000F894DEBF0FBECDBF0E94780300917F03E6
:10185000109180032091810330918203DC01CB0140
:10186000801B910BA20BB30BC297A105B10560F3CE
:10187000F89480917503909176039A838983E0911F
:101880007903F0917A03DF01119680818987809135
:101890007E03E0918303F091840381FFBBC01B8230
:1018A000EB32F10509F058C09BB180918503982B6C
:1018B00098879BB1809589238F838F818C838985BD
:1018C00087FF02C088858C8358856F8149853C815C
:1018D0002B8189819A815BB9262F3BB900C046FDD7
:1018E000252F6BB900C05BB9362F2BB900C045FD61
:1018F000352F6BB900C05BB9262F3BB900C044FD42
:10190000252F6BB900C05BB9362F2BB900C043FD42
:10191000352F6BB900C05BB9262F3BB900C042FD23
:10192000252F6BB900C05BB9362F2BB900C041FD24
:10193000352F6BB900C05BB9262F3BB900C040FD05
:10194000252F6BB901975BB9362F2BB94D9147FD08
:10195000352F6BB901F65AC0B59709F08BC095B118
:1019600080918503982B988795B1809589238F83E3
:101970008F818C83898587FF02C088858C835885F9
:101980006F8149853C812B8189819A8155B9262FA8
:1019900035B900C046FD252F65B900C055B9362FB1
:1019A00025B900C045FD352F65B900C055B9262FB2
:1019B00035B900C044FD252F65B900C055B9362F93
:1019C00025B900C043FD352F65B900C055B9262F94
:1019D00035B900C042FD252F65B900C055B9362F75
:1019E00025B900C041FD352F65B900C055B9262F76
:1019F00035B900C040FD252F65B9019755B9362F7F
:101A000025B94D9147FD352F65B901F649873C83CE
:101A10002B832EC0908180918503982B988790818D
:101A2000809589238F838F818E8388E08D8358856D
:101A30006F8149853D812E8189819A81508347FD3F
:101A4000252F2083262F3A9531F0441F608300C054
:101A500000C000C0F3CF6083000038E04D910197D3
:101A600069F7F0938403E093830349873D832E83D2
:101A70009A83898378940E94780360937F0370939C
:101A80008003809381039093820329960FB6F89484
:101A9000DEBF0FBECDBFDF91CF911F910F91089593
:101AA0008F929F92AF92BF92CF92DF92EF92FF926E
:101AB0004B01AA24BB24F82DC52ED62EE72EFF24D9
:101AC000EC2D342F20917803222361F0829E400177
:101AD0001124F92DC29E60011124ED2D429FA00119
:101AE0001124352FAC01440F551F840F951F4091D1
:101AF000790350917A03840F951F20917B03DC01B9
:101B0000A20FB11DFC9320917C03DC01A20FB11D3B
:101B1000EC9320917D03FC01E20FF11D3083FF90D7
:101B2000EF90DF90CF90BF90AF909F908F900895EF
:101B3000CF93DF93EB0191E09093A7029BE6909304
:101B400086031092A8021092C902682F87E693E0DC
:101B50000E942A02688187E693E00E942A02DF91B0
:101B6000CF910C94A70BEF92FF920F931F93CF93FB
:101B7000DF931F92CDB7DEB7062F10926902109245
:101B800068021092A8021092C90289830E94F6048A
:101B900091E09093A70292E3909386038981682F46
:101BA00087E693E00E942A0210E0E02EF12C812FBC
:101BB000012E000C990B8E159F0554F4FC01E6597B
:101BC000FD4F608187E693E00E942A021F5FEFCFFE
:101BD0000F90DF91CF911F910F91FF90EF900C9498
:101BE000A70B8C3D95404CF480ED97E00E94E406F5
:101BF00040E060E584E60E94910569E170E080E0E4
:101C000090E00E949D030E94EF060C947D050097D2
:101C100069F0FC0101900020E9F73197AF01481B02
:101C2000590BBC018AEC92E00C94F70E80E090E036
:101C300008958F929F92AF92BF920F931F93CF936D
:101C4000DF93CDB7DEB7A1970FB6F894DEBF0FBE16
:101C5000CDBF19A2423008F44AE08E010F5D1F4F3C
:101C6000842E912CA12CB12CA50194010E94D9198C
:101C7000E62FB901CA0101501109EA3014F4E05D00
:101C800001C0E95CD801EC93232B242B252B61F7B1
:101C9000C8010E94070EA1960FB6F894DEBF0FBED2
:101CA000CDBFDF91CF911F910F91BF90AF909F90CB
:101CB0008F900895CF92DF92EF92FF92CF93DF93B0
:101CC0006B017C01E091CA02F091CB020190F0819E
:101CD000E02D6DE28AEC92E00995EC01662777270A
:101CE000CB016C197D098E099F094AE00E94190EEB
:101CF0008C0F9D1FDF91CF91FF90EF90DF90CF90E1
:101D00000895CF93DF93C62F91E09093A70292E3BB
:101D1000909386031092A8021092C902682F87E65A
:101D200093E00E942A020E94A70B80E690E00197B0
:101D3000F1F78091A602882319F00E947B04F9CF65
:101D4000C13208F0C0E281E08093A6028093A50230
:101D50009FEF9093A4021092A3029C0F9093A20273
:101D600080938102809181028466809381028091B8
:101D70008002813041F41092800280918102809330
:101D8000BB0084EC01C084EE8093BC008091A6026D
:101D9000813019F40E947B04F9CF8091A3028C1743
:101DA00010F4C091A302A2E8B2E028E432E0F90105
:101DB0008E2F821B8C1718F48D918193F9CF10927E
:101DC0006902C0936802D0E080916902C81759F097
:101DD00087E693E00E94D101ED2FF0E0E659FD4F38
:101DE0008083DF5FF1CF8D2FDF91CF910895CF9268
:101DF000DF92EF92FF920F931F93CF93DF936C01CB
:101E00007A018B01C0E0D0E0CE15DF0589F0D80162
:101E10006D918D01D601ED91FC910190F081E02D45
:101E2000C6010995892B11F47E0102C02196ECCFE1
:101E3000C701DF91CF911F910F91FF90EF90DF903D
:101E4000CF900895CF93DF9300D000D0CDB7DEB709
:101E5000611571058105910579F09B01AC016983DC
:101E60003A834B835C830E945A1929813A814B81C2
:101E70005C810E94A71903C060E070E0CB010F9065
:101E80000F900F900F90DF91CF910895CF93DF9334
:101E9000CDB7DEB765970FB6F894DEBF0FBECDBFE6
:101EA000789484B5826084BD84B5816084BD85B535
:101EB000826085BD85B5816085BD80916E00816041
:101EC00080936E00109281008091810082608093E7
:101ED00081008091810081608093810080918000E9
:101EE0008160809380008091B10084608093B10014
:101EF0008091B00081608093B00080917A0084600E
:101F000080937A0080917A00826080937A00809139
:101F10007A008E7F80937A0080917A008068809327
:101F20007A001092C10061E087E00E94DD0260E06B
:101F300087E00E94AD0240E050E060E070E080E0A9
:101F400090E00E94260560E08AE00E94DD0260E0E9
:101F50008BE00E94DD0260E08DE00E94DD0261E026
:101F60008CE00E94DD0260E08CE00E94AD0262E045
:101F700082E00E94DD0260E089E00E94DD02E091E3
:101F8000DA02F091DB0282E08083E091D602F091E8
:101F9000D7021082E091D802F091D90210E11083AB
:101FA0001092E202E091DE02F091DF0286E080838F
:101FB000E091DC02F091DD02808180618083E0911C
:101FC000DC02F091DD02808188608083E091DC0298
:101FD000F091DD02808180688083E091DC02F091E5
:101FE000DD0280818F7D808360E087E00E94AD020A
:101FF00061E087E00E94DD0210926902109268029F
:102000001092A8021092C9020E94F6041D83BE011C
:102010006B5F7F4F82E20E94980D8FE08C83BE0140
:102020006C5F7F4F80E20E94980DBE016D5F7F4F15
:1020300089EF93E00E941B05BE016E5F7F4F8AEF20
:1020400093E00E941B05BE016F5F7F4F8BEF93E013
:102050000E941B05909101018B81911103C0809317
:1020600001010AC090910101891731F061E071E02E
:1020700089EF93E00E94140590916A018A81911181
:1020800003C080936A010AC090916A01891731F0F8
:102090006AE671E08AEF93E00E94140590910001D6
:1020A0008981911103C0809300010AC090910001C1
:1020B000891731F060E071E08BEF93E00E94140526
:1020C00080910101815880936A0261E087E30E9458
:1020D000B30D80916A01815880936A0261E088E3C0
:1020E0000E94B30D80910001815880936A0261E0E3
:1020F00089E30E94B30D6BE6E62E61E0F62E0CEF4D
:1021000013E0C8010E949119F70181937F010F5FCD
:102110001F4F0115F4E01F07A1F7C0906B01D0908D
:102120006C01E0906D01F0906E012AE939E949E512
:102130005FE3C701B6010E940A1A87FD12C023E3BC
:1021400033E343E95FE3C701B6010E94681918163B
:1021500044F0C0920201D0920301E0920401F09297
:1021600005010E94EF0685E18093460165E00E942B
:10217000810E80916B0290E0982F882720916C024D
:10218000822B909372018093710180916D0290E097
:10219000982F882720916E02822B90937001809354
:1021A0006F010E94D7036093790170937A01809345
:1021B0007B0190937C010E94D7036093740170931C
:1021C0007501809376019093770181E0809373018C
:1021D00085E68EBD109248011092490110924A0185
:1021E00010924B0110924C0110924D0110924E0131
:1021F00010924F011092500180914801E0914901E5
:1022000070914A0160914B0150914C0140914D01F8
:1022100030914E0120914F01909150018E278727D8
:102220008627852784278327822789278093510142
:1022300010925301109252018CB580648CBD8CB504
:1022400080688CBD40E050E060E070E080E090E0AD
:102250000E94260588EE93E00E94E40642E360E0D7
:1022600088E20E94910562E370E080E090E00E94C5
:102270009D0380ED97E00E94E40662E370E080E059
:1022800090E00E949D0388EB9BE00E94E40662E3DD
:1022900070E080E090E00E949D0380EA9FE00E9451
:1022A000E40664E670E080E090E00E949D030E94F6
:1022B000EF060E947D0588EB9BE00E94D90684E62C
:1022C0000E94D1068AE50E94C9068AE00E94BA06E9
:1022D0000E9438076091540170915501072E000C3F
:1022E000880B990B611571058105910511F00E940C
:1022F0005F190E949B0911E010936A0261E081E47A
:102300000E94B30D45E050E060E070E080E090E0B6
:102310000E9426052AE030E040E050E060E070E0F6
:102320008EE090E00E9459052AE030E040E050E065
:1023300060E070E08AE190E00E9459050E94FF058C
:102340008823E1F10E945F07109378018FEF80935B
:10235000060134C00E94A80680329340A0F10E947A
:10236000FF05882319F14AE050E06AE070E080E060
:1023700090E00E942605F2E0F093060164E670E02A
:1023800080E090E00E949D0360E070E080E090E0DB
:102390000E94B1050E94EF060E94FF058111FCCF4B
:1023A00064E670E080E090E00E949D030E944F068A
:1023B00062E370E080E090E00E949D03809106015E
:1023C000813041F220C36BE070E080E090E00E9439
:1023D000220FDC01CB010196A11DB11D092E000CBD
:1023E000AA0BBB0BFC013197EB30F10508F0B7CF1E
:1023F000EC5CFF4F0C940F1A88EE93E00E94E40609
:1024000048E760E080E00E94910562E370E080E0D0
:1024100090E00E949D0380ED97E00E94E40662E355
:1024200070E080E090E00E949D0388EB9BE00E94BA
:10243000E40662E370E080E090E00E949D0380EAA1
:102440009FE00E94E40664E670E080E090E00E9475
:102450009D0348E768E780E00E94910562E370E031
:1024600080E090E00E949D0380EA9FE00E94E406E5
:1024700062E370E080E090E00E949D0388E893E1D1
:102480000E94E40662E370E080E090E00E949D0319
:1024900080E797E10E94E40664E670E080E090E067
:1024A0000E949D030E94EF064AE060E080E00E94E7
:1024B000910564EF71E080E090E045C00E94E70A7A
:1024C0004ECF86E990E00E94D9064CE360E084E6B6
:1024D0000E94910580EA9FE00E94E4068FE00E943E
:1024E000D1060E942D080E94EF0688EB9BE00E9417
:1024F000D90688E20E94BA066EEE72E080E090E0B3
:102500000E949D0386E990E00E94D90683E70E941D
:10251000BA060E942D0888E20E94BA060E942D0881
:1025200088EB9BE00E94D9068AE00E94BA0684E606
:102530000E94D10644E160E080E00E9491056CE2D7
:1025400071E080E090E00E949D0309CF0AE010E076
:10255000312C64E670E080E090E00E94220F6B0175
:102560007C01E2E3CE0ED11CE11CF11C6CEA7DE0A3
:1025700080E090E00E94220F4B015C0168E770E070
:1025800080E090E00E94220F262F68E770E080E054
:1025900090E02D8B0E94220F362F68E770E080E0DC
:1025A00090E03C8B0E94220F262E68E770E080E0CE
:1025B00090E00E94220F2B013C0168E770E080E070
:1025C00090E00E94220F6E837F838887998768E757
:1025D00070E080E090E00E94220FAB016E817F816D
:1025E000C2010E942605422D3C89632F2D89822F2E
:1025F0000E949105D501C40188519C4FAF4FBF4F38
:102600000E94E406882799278C199D09332031F010
:10261000BC01C6010E94B105312C05C0B6010E9463
:10262000B1053324339464E670E080E090E00E94CA
:102630009D030150110909F08CCF60E070E080E04B
:1026400090E00E94B105BFC040E060E088EC0E94CD
:10265000910588EE93E00E94D90688EE93E00E94EF
:10266000E4068CE80E94C9060E942D0888E20E94B8
:10267000C9060E942D088CE80E94C9060E942D08F8
:1026800088E20E94C9060E942D088AE50E94C906B8
:1026900024C040E068EC80E00E94910588EE93E061
:1026A0000E94D90688EB9BE00E94E40686E90E941E
:1026B000D1060E942D0882E30E94D1060E942D08B7
:1026C00086E90E94D1060E942D0882E30E94D1066D
:1026D0000E942D0884E60E94D1060E942D0888EBF6
:1026E0009BE00E94D9064FE060E080E00E949105E7
:1026F0000E94EF0634CE0FE010E060EA7FE080E059
:1027000090E00E94220F6B017C0168E770E080E09E
:1027100090E00E94220F2B013C0168E770E080E00E
:1027200090E00E94220F6E837F838887998768E7F5
:1027300070E080E090E00E94220F9B01AC0168E70E
:1027400070E080E090E02D8B3C8B4A8B5B8B0E948D
:10275000220F6A877B878C879D8768E770E080E01F
:1027600090E00E94220F6E877F87888B998B68E7A5
:1027700070E080E090E00E94220F4B015C012D8907
:102780003C894E815F81B20181E090E00E94590551
:1027900094014E855F856A857B8582E090E00E948A
:1027A0005905D701C60188519C4FAF4FBF4F0E94BA
:1027B000E40662E370E080E090E00E949D03015037
:1027C000110909F09ACF0E94EF0640E050E060E066
:1027D00070E080E090E00E94260544E160E080E047
:1027E0000E949105BCCD0E94410AB9CD0E944F06BE
:1027F0000E94D7030091790110917A0120917B0109
:1028000030917C010053184F2F4F3F4F60177107D5
:102810008207930708F087C00E94F30665E070E026
:1028200080E090E00E949D03409168015091690111
:1028300080916601909167019C0122533109241710
:1028400035070CF0D9C12091680130916901C29619
:10285000281739070CF0D0C14091640150916501EF
:1028600080916201909163019C01225331092417E8
:1028700035070CF0F5C22091640130916501C296D4
:10288000281739070CF0ECC20E94A806803D97403B
:1028900008F4CFC00E94FF05882309F4A7CF4AE0BF
:1028A00050E06AE070E080E090E00E94260583E05E
:1028B0008093060140E050E060E070E080E090E04E
:1028C0000E94260520E030E04AE050E06AE070E037
:1028D0008EE090E00E94590520E030E04AE050E0B0
:1028E0006AE070E08AE190E00E94590540E06AE009
:1028F0008AE00E94910564E670E080E090E00E942A
:102900009D0360E070E080E090E00E94B1050E94CD
:10291000EF060E94FF058111FCCF64E670E080E0C5
:1029200090E00E949D036CE070E080E090E00E94E7
:10293000220F623009F4AFC0633009F4C1C06130C6
:1029400009F04BC068E87FEF88E89FEF0E94B1056F
:102950006CE271E080E090E00E949D0360E070E036
:1029600080E090E00E94B1056FEF70E081E09FEFA2
:102970000E94B10544E650E060E070E084E690E03B
:102980000E94260546E962E380E00E94910508EE78
:1029900013E0C8010E94E40664E670E080E090E085
:1029A0000E949D030C591F4F0430E0E11E0789F778
:1029B00060E070E080E090E00E94B1050E94EF06C8
:1029C00040E050E060E070E080E090E00E9426058A
:1029D00044E160E080E00E94910562E370E080E005
:1029E00090E00E949D030E94D70360937901709349
:1029F0007A0180937B0190937C0160E070E080E03D
:102A000090E00E94B10580910601823009F0BAC0C1
:102A10006AE570E08AE590E00E94B1050E94D70364
:102A20006093790170937A0180937B0190937C018C
:102A3000DFCE60E070E080E090E00E94B1050E948F
:102A40005B08882329F064E670E08CE99FEF04C0FE
:102A50006CE97FEF84E690E00E94B1056EEE72E0D3
:102A600080E090E00E949D0360E070E080E090E0F4
:102A70000E94B1050E94D7036093790170937A0197
:102A800080937B0190937C016AE570E08AE590E099
:102A90000E94B105FFCE68E87FEF88E89FEF0E94B3
:102AA000B1056CE271E080E090E00E949D0360E07F
:102AB00070E080E090E00E94B1050E94E70A8DCFAF
:102AC00064EC7FEF84EC9FEF0E94B10566E970E053
:102AD00080E090E00E949D0360E070E080E090E084
:102AE0000E94B1050E94410A78CF40E06AE08AE086
:102AF0000E9491050E943807209160013091610188
:102B000080915E0190915F01821793070CF040C0A5
:102B10006CE870E088E290E00E94B1050E94A8068F
:102B2000803D9740D0F10E94FF05882319F14AE0CB
:102B300050E06AE070E080E090E00E94260560E0EE
:102B400070E080E090E00E94B1050E94EF0621E075
:102B50002093060164E670E080E090E00E949D030F
:102B60000E94FF058111FCCF64E670E080E090E0F8
:102B70000E949D030E944F0662E370E080E090E0B7
:102B80000E949D0380910601833009F4AECF27C0D7
:102B900068E270E08CE890E0BFCF60E070E080E039
:102BA00090E00E94B1050E945B08882329F064E64A
:102BB00070E08CE99FEF04C06CE97FEF84E690E061
:102BC0000E94B1056EEE72E080E090E00E949D03ED
:102BD00060E070E080E090E00E94B105A4CF8091B9
:102BE0007801882331F00E94FF058823E1F30E94D9
:102BF0005F070E945A01E2CB68E87FEF88E89FEF09
:102C00000E94B10568EC70E080E090E00E949D03B6
:102C100066EA7FEF84EC9FEF0E94B10585E594E0C2
:102C20000E94E40688E790E00E94D9068DE20E94A7
:102C3000C9068EE10E94D10660E570E080E090E078
:102C40000E94220F062F60E570E080E090E00E9475
:102C5000220F162F60E570E080E090E00E94220FC6
:102C6000462F50E0612F70E0802F90E00E942605F3
:102C700064E670E080E090E00E94220F162F64E688
:102C800070E080E090E00E94220F062F64E670E082
:102C900080E090E00E94220F462F602F812F0E943B
:102CA000910593E3892E912C0E94F30680915C019B
:102CB00090915D01E0905A01F0905B01670122E381
:102CC000C21AD108C816D9060CF042C080915C0126
:102CD00090915D01E2E3EE0EF11C8E159F05C4F5A7
:102CE000809158019091590100915601109157011E
:102CF0005801F2E3AF1AB108A816B9064CF5809155
:102D00005801909159010E5C1F4F8017910704F5EF
:102D100068E070E080E090E00E949D0381E0881A06
:102D2000910809F0C1CF0E94EF0660EB7FEF80E5CC
:102D300090E00E94B10537E4832E912C0E94F306A7
:102D400080915C0190915D01C816D9060CF440C0D9
:102D500062E370E082E390E00E94B10568EC70E00D
:102D600080E090E00E949D0360E070E080E090E0F1
:102D70000E94B1050E94EF060E949B098AE50E940D
:102D8000C90684E60E94D1060E942D0888EB9BE0CC
:102D90000E94D90640E050E060E070E080E090E002
:102DA0000E94260544E164E180E00E9491050E94B2
:102DB000D7036093790170937A0180937B0190939C
:102DC0007C016AE570E08AE590E00E94B10544CD9F
:102DD00080915C0190915D018E159F050CF0B8CF3C
:102DE0008091580190915901A816B9060CF0B0CF06
:102DF0008091580190915901801791070CF0A8CF4C
:102E000068E070E080E090E00E949D03E1E08E1AAF
:102E1000910809F093CF60E070E080E090E00E94BC
:102E2000B1058AE50E94C90684E60E94D1060E9487
:102E30002D0888EB9BE00E94D90662E370E080E0F9
:102E400090E00E949D0340E050E060E070E080E090
:102E500090E00E9426050E949B0944E160E0A4CF17
:102E600068E87FEF88E89FEF0E94B10568EC70E0AA
:102E700080E090E00E949D0364EC7FEF86EA9FEF84
:102E80000E94B10585E594E00E94E40688E790E0A1
:102E90000E94D90687E80E94C9068EE10E94D106E9
:102EA00060E570E080E090E00E94220F062F60E570
:102EB00070E080E090E00E94220F162F60E570E045
:102EC00080E090E00E94220F462F50E0612F70E0DA
:102ED000802F90E00E94260564E670E080E090E09C
:102EE0000E94220F162F64E670E080E090E00E94BE
:102EF000220F062F64E670E080E090E00E94220F2F
:102F0000462F602F812F0E94910583E3882E912CFC
:102F10000E94F30680915C0190915D0100915A013D
:102F200010915B01680122E3C21AD108C816D906C4
:102F30000CF042C080915C0190915D010E5C1F4FCE
:102F400080179107CCF58091580190915901E0903C
:102F50005601F09057015701E2E3AE1AB108A816E6
:102F6000B90654F58091580190915901F2E3EF0EA2
:102F7000F11C8E159F0504F568E070E080E090E09C
:102F80000E949D03F1E08F1A910809F0C1CF0E94C1
:102F9000EF0660E570E080EB9FEF0E94B10527E44B
:102FA000822E912C0E94F30680915C0190915D012C
:102FB000C816D9060CF440C062E370E082E390E0EA
:102FC0000E94B10568EC70E080E090E00E949D03F3
:102FD00060E070E080E090E00E94B1050E94EF06A2
:102FE0000E949B098AE50E94C90684E60E94D106D8
:102FF0000E942D0888EB9BE00E94D90640E050E03B
:1030000060E070E080E090E00E94260544E164E129
:1030100080E00E9491050E94D7036093790170932C
:103020007A0180937B0190937C016AE570E08AE5E8
:1030300090E00E94B10528CC80915C0190915D01E7
:10304000801791070CF0B8CF8091580190915901E9
:10305000A816B9060CF0B0CF809158019091590193
:103060008E159F050CF0A8CF68E070E080E090E03E
:103070000E949D0321E0821A910809F093CF60E03D
:1030800070E080E090E00E94B1058AE50E94C906E8
:1030900084E60E94D1060E942D0888EB9BE00E94E6
:1030A000D90662E370E080E090E00E949D0340E07A
:1030B00050E060E070E080E090E00E9426050E9411
:1030C0009B0944E160E0A4CF8091790390917A0359
:1030D000009711F00E94AA1A60E0809177030C9487
:1030E000DD021092CD021092CC0288EE93E0A0E0B7
:1030F000B0E08093CE029093CF02A093D002B09321
:10310000D10229E131E03093CB022093CA0225ECB1
:1031100030E03093D7022093D60224EC30E0309395
:10312000D9022093D80220EC30E03093DB022093C8
:10313000DA0221EC30E03093DD022093DC0222EC55
:1031400030E03093DF022093DE0226EC30E0309353
:10315000E1022093E0021092E3021092E402109246
:10316000E5021092E60210926A03109269038093BE
:103170006B0390936C03A0936D03B0936E0389E28D
:1031800091E090936803809367038BE190E09093C4
:1031900074038093730381E590E0909376038093AA
:1031A000750387E0809377031092780383E0809320
:1031B0007E0310927F03109280031092810310927D
:1031C0008203EBECF0E0E491F0E0EE0FFF1FE65439
:1031D000FF4F859194919093840380938303EDEA4C
:1031E000F0E0E491E093850381E590E00E94151AF8
:1031F00090937A0380937903009729F021E5FC01ED
:1032000011922A95E9F781E080937B0310927C0369
:1032100082E080937D0308958F929F92AF92BF9238
:10322000CF92DF92EF92FF92CF93DF93EC01688110
:1032300079818A819B81611571058105910521F450
:1032400064E279ED8BE597E02DE133EF41E050E06A
:103250000E94A71949015A019B01AC01A7EAB1E4F8
:103260000E94C6196B017C01ACEEB4EFA50194017C
:103270000E94D419DC01CB018C0D9D1DAE1DBF1D1C
:10328000B7FF03C00197A109B04888839983AA8337
:10329000BB83BC01CD019F77DF91CF91FF90EF9071
:1032A000DF90CF90BF90AF909F908F9008950E9435
:1032B0000C1908958BE091E00E940C190895609319
:1032C0000B0170930C0180930D0190930E010895F2
:1032D0000E946D1908F481E00895990F0008550FB8
:1032E000AA0BE0E8FEEF16161706E807F907C0F08C
:1032F00012161306E407F50798F0621B730B840B94
:10330000950B39F40A2661F0232B242B252B21F46D
:1033100008950A2609F4A140A6958FEF811D811D0D
:103320000895F999FECF92BD81BDF89A992780B58D
:103330000895262FF999FECF1FBA92BD81BD20BDF9
:103340000FB6F894FA9AF99A0FBE01960895052ED1
:1033500097FB1EF400940E94BE1957FD07D00E94EF
:10336000D91907FC03D04EF40C94BE195095409522
:10337000309521953F4F4F4F5F4F08959095809521
:10338000709561957F4F8F4F9F4F08950E94FB1955
:10339000A59F900DB49F900DA49F800D911D1124A9
:1033A0000895B7FF0C94C6190E94C619821B930B8F
:1033B0000895A1E21A2EAA1BBB1BFD010DC0AA1F76
:1033C000BB1FEE1FFF1FA217B307E407F50720F08E
:1033D000A21BB30BE40BF50B661F771F881F991F09
:1033E0001A9469F760957095809590959B01AC0152
:1033F000BD01CF010895A29FB001B39FC001A39F5B
:10340000700D811D1124911DB29F700D811D11241D
:10341000911D08950E946D1908F48FEF0895EE0F25
:10342000FF1F0590F491E02D0994CF93DF93823034
:10343000910510F482E090E0E0918903F0918A0315
:1034400020E030E0C0E0D0E0309711F140815181C0
:1034500048175907C0F04817590761F482819381D2
:10346000209719F09B838A832BC090938A038093C3
:10347000890326C02115310519F04217530718F4A6
:103480009A01BE01DF01EF010280F381E02DDCCF64
:103490002115310509F1281B390B2430310590F431
:1034A00012968D919C9113976115710521F0FB0186
:1034B0009383828304C090938A0380938903FD01E0
:1034C000329644C0FD01E20FF31F81939193225085
:1034D00031092D933C933AC02091870330918803A2
:1034E000232B41F420911101309112013093880374
:1034F0002093870320910F01309110012115310590
:1035000041F42DB73EB74091130150911401241B93
:10351000350BE0918703F0918803E217F307A0F4DD
:103520002E1B3F0B2817390778F0AC014E5F5F4F19
:103530002417350748F04E0F5F1F509388034093C0
:1035400087038193919302C0E0E0F0E0CF01DF9127
:10355000CF9108950F931F93CF93DF93009709F4B2
:103560008CC0FC0132971382128200918903109162
:103570008A030115110581F420813181820F931F87
:1035800020918703309188032817390779F5F09344
:103590008803E093870371C0D80140E050E0AE1784
:1035A000BF0750F412962D913C911397AD01211550
:1035B000310509F1D901F3CF9D01DA01338322836B
:1035C00060817181860F971F8217930769F4EC0160
:1035D00028813981260F371F2E5F3F4F318320838B
:1035E0008A819B8193838283452B29F4F0938A03FC
:1035F000E093890342C01396FC93EE931297ED017A
:10360000499159919E01240F351FE217F30771F478
:1036100080819181840F951F029611969C938E93C1
:103620008281938113969C938E931297E0E0F0E051
:10363000D80112968D919C911397009719F0F8017B
:103640008C01F6CF8D919C9198012E5F3F4F820F98
:10365000931F20918703309188032817390769F455
:10366000309729F410928A031092890302C01382C2
:1036700012821093880300938703DF91CF911F91EB
:103680000F91089581E090E0F8940C94471B10E0AE
:10369000CDE6D0E004C0FE010E940F1A2196CE367E
:0836A000D107C9F7F894FFCF30
:1036A800FF190000803F01B601B6010100000000CB
:1036B800008B03800000000000F100F70EBA0098AC
:1036C80000AC003801000000002A02ED01E501D13C
:1036D80001C201C101626173656C696E653A2000BF
:0636E80009000D0A0000BC
:00000001FF
