:100000000C946E000C940F0A0C94E8090C94960062
:100010000C9496000C9496000C9496000C94960008
:100020000C9496000C9496000C9496000C949600F8
:100030000C9496000C9496000C9496000C949600E8
:100040000C949E090C94BA000C940D080C94E707CC
:100050000C9496000C9496000C9496000C949600C8
:100060000C9496000C949600DF12411344138913EC
:1000700007142C145E148F128F128F12D6140000E6
:100080000000240027002A000000000023002600B2
:10009000290000000008000201000003040700001E
:1000A000000000000000010204081020408001024E
:1000B00004081020010204081020000000002500A0
:1000C00028002B00040404040404040402020202B5
:1000D00002020303030303033B192E1911241FBE5D
:1000E000CFEFD8E0DEBFCDBF11E0A0E0B1E0ECE3A0
:1000F000F8E302C005900D92AA34B107D9F723E0C6
:10010000AAE4B1E001C01D92AF38B207E1F710E0F8
:10011000CDE6D0E004C02197FE010E94D91ACC366A
:10012000D107C9F70E94E10F0C94111C0C94000038
:10013000CF9380911D02811113C08EE680934A01F6
:1001400010926E02C1E0C0936F0262E00E944E0EF8
:10015000C0931D0265E070E080E090E00E945809C5
:1001600088E00E943F0821E0892B09F020E0822FDF
:10017000CF9108951F920F920FB60F9211248F9373
:10018000EF93FF93E0915701F0E08EB5EE5EFD4FE7
:100190008083E0915701F0E0E45BFE4F80818EBDEB
:1001A00081E080935601809157018F5F80935701C2
:1001B000809157018B3020F01CBC8CB58F778CBDA3
:1001C000FF91EF918F910F900FBE0F901F90189598
:1001D00080915601882309F453C08AE00E943F08A9
:1001E000019709F04DC01CBC8CB58F778CBD8091F8
:1001F0001202F09113027091140260911502509155
:100200001602409117023091180220911902909124
:100210001A02E0911B028F278727862785278427CC
:100220008327822789278E1731F18FEF809312025F
:1002300080911202823891F41092060160911402AA
:100240008091130270E060587109660F771F90E08B
:1002500080589109880F991F0E94F40B85E68EBD86
:1002600010925701109256018CB580648CBD8CB5EC
:1002700080688CBD089580911B028111D9CFD5CFA4
:10028000089583E480934A0163E00E941C0FEEE628
:10029000F2E0818190E0982F88272281338130938A
:1002A0001102822B08958A3020F0843718F083E7FA
:1002B00001C08AE08093100280936E0261E086E3C1
:1002C0000C944E0E80930F0280936E0261E085E3E2
:1002D0000C944E0E80930E0280936E0261E084E3D4
:1002E0000C944E0E23E320934A01EEE6F2E0908355
:1002F000818362E083E30C944E0E29E220934A014D
:10030000EEE6F2E09083818362E089E20C944E0E87
:1003100080E090E00C947D0181E280934A016DE0E1
:100320000E941C0FEEE6F2E0818190E0982F882772
:100330002281822B90930D0280930C02838190E0A6
:10034000982F88272481822B90930B0280930A0296
:10035000858190E0982F88272681822B90936101D8
:1003600080936001878190E0982F88272085822BD9
:1003700090936D0180936C01818590E0982F882780
:100380002285822B9093690180936801838590E098
:10039000982F88272485822B90935D0180935C01A0
:1003A000089580E280934A0167E00E941C0FEEE608
:1003B000F2E0818190E0982F88272281822B909310
:1003C000650180936401838190E0982F88272481C0
:1003D000822B9093630180936201858190E0982F36
:1003E00088272681822B9093590180935801089584
:1003F0000F931F93CF93DF938FE680934A0185E09D
:1004000080936E0261E08FE60E944E0EC4E0D0E061
:1004100013E102E080ED97E00E947D0144E150E0AD
:1004200064E170E084E190E00E94E10A10934A01E7
:1004300000936E0261E083E10E944E0E64EF71E072
:1004400080E090E00E9458090E94880140E050E05E
:1004500060E070E080E090E00E94E10A10934A01C1
:1004600010926E0261E083E10E944E0E64EF71E033
:1004700080E090E00E945809219761F688EB9BE0AC
:100480000E9472016AE070E080E090E00E945809EA
:1004900040E050E060E070E084E190E00E94E10A1A
:1004A00068EE73E080E090E00E945809C4E0D0E07C
:1004B00080E50E94530160E971E080E090E00E94D5
:1004C00058098EE60E94530160E971E080E090E0F7
:1004D0000E945809219761F768EE73E080E090E090
:1004E0000E94580940E050E064E170E080E090E054
:1004F0000E94E10AC4E0D0E082E30E94620160E968
:1005000071E080E090E00E9458098AE50E94620153
:1005100060E971E080E090E00E945809219761F75E
:1005200068EE73E080E090E00E94580944E150E0FA
:1005300060E070E080E090E00E94E10AC4E0D0E07A
:1005400088E20E946A0160E971E080E090E00E9428
:10055000580984E60E946A0160E971E080E090E059
:100560000E945809219761F768EE73E080E090E0FF
:100570000E94580947E050E067E070E087E090E0B3
:10058000DF91CF911F910F910C94E10A1F93CF93AC
:10059000DF93C8ECD0E012E362E370E080E090E02B
:1005A0000E94580910934A0162E082E30E941C0FE6
:1005B00080916F0280930902982F917090930802A6
:1005C00081FB992790F99093070282FB882780F995
:1005D0008093060280910902882311F02197E1F6A9
:1005E000DF91CF911F9108958F929F92AF92BF920A
:1005F000CF92DF92EF92FF920F931F93CF93DF93EF
:1006000088EE93E00E9472018EE10E9462010E94D6
:10061000C60288EB9BE00E94720168E270E080E015
:1006200090E00E9458090E944101EC010E948C0E4A
:1006300088E20E94620165E570E080E090E00E943F
:1006400058090E944101AE01DD0F660B770B4C018A
:10065000092E000CAA08BB08840E951EA61EB71E04
:100660000E948C0E82E30E94620165E570E080E0EA
:1006700090E00E9458090E9441018C01092E000C53
:10068000220B330B800E911EA21EB31E0E948C0EF5
:100690008CE30E94620165E570E080E090E00E94DA
:1006A00058090E9441018C01092E000C220B330BCA
:1006B000800E911EA21EB31E0E948C0E86E40E9424
:1006C000620165E570E080E090E00E9458090E94B8
:1006D00041018C01092E000C220B330B800E911E60
:1006E000A21EB31E0E948C0E80E50E94620165E589
:1006F00070E080E090E00E9458090E944101AC0146
:10070000092E000C660B770B840E951EA61EB71ED5
:100710000E948C0E8AE50E94620165E570E080E02F
:1007200090E00E9458090E9441010E948C0E84E6CC
:100730000E94620165E570E080E090E00E94580947
:100740000E944101EC010E948C0E8EE60E94620123
:1007500065E570E080E090E00E9458090E94410148
:10076000AE01DD0F660B770B6C01092E000CEE0855
:10077000FF08C40ED51EE61EF71E0E948C0E88E7E9
:100780000E94620165E570E080E090E00E945809F7
:100790000E9441018C01092E000C220B330BC00E6C
:1007A000D11EE21EF31E0E948C0E82E80E9462019E
:1007B00065E570E080E090E00E9458090E944101E8
:1007C0008C01092E000C220B330BC00ED11EE21E31
:1007D000F31E0E948C0E8CE80E94620165E570E0B9
:1007E00080E090E00E9458090E9441018C01092E8E
:1007F000000C220B330BC00ED11EE21EF31E0E9412
:100800008C0E86E90E94620165E570E080E090E070
:100810000E9458090E9441018C01092E000C220BF4
:10082000330BC00ED11EE21EF31E0E948C0E88EE0A
:1008300093E00E9472018AE50E9462010E94C60252
:1008400081E08C149D04AE04BF040CF480E0DF91C1
:10085000CF911F910F91FF90EF90DF90CF90BF90BD
:10086000AF909F908F9008956EE170E080E090E0EF
:100870000E9458098FE180934A016DE00E941C0F8D
:1008800080916F0290E0982F882720917002822B30
:1008900090930D0280930C028091710290E0982F4A
:1008A000882720917202822B90930B0280930A0278
:1008B0008091730290E0982F882720917402822BF8
:1008C00090936101809360018091750290E0982F70
:1008D000882720917602822B90936D0180936C0182
:1008E0008091770290E0982F882720917802822BC0
:1008F00090936901809368018091790290E0982F2C
:10090000882720917A02822B90935D0180935C016D
:1009100080916C0190916D0190936B0180936A01BD
:1009200080916801909169019093670180936601BD
:10093000809160019091610190935F0180935E01CD
:1009400080915C0190915D0190935B0180935A01CD
:1009500089E391E00E94A20E60916C0170916D019B
:10096000072E000C880B990B97FF03C00E94F50E11
:1009700003C04AE00E94B40E84E491E00E94A20EFB
:100980006091680170916901072E000C880B990B2A
:1009900097FF03C00E94F50E03C04AE00E94B40E08
:1009A00086E491E00E94A20E64E670E080E090E0B0
:1009B0000C9458090F931F93CF93DF9362E070E07C
:1009C00080E090E00E94BD0F162F88EB9BE00E9414
:1009D0007201D2E068EB7BE080E090E00E94BD0F06
:1009E000DC01CB0188519C4FAF4FBF4F0E947D016E
:1009F00060E570E080E090E00E94BD0F062F60E5AA
:100A000070E080E090E00E94BD0FC62F60E570E0CE
:100A100080E090E00E94BD0F462F50E06C2F70E008
:100A2000802F90E00E94E10A64E670E080E090E0B0
:100A30000E94BD0FC62F64E670E080E090E00E9447
:100A4000BD0F062F64E670E080E090E00E94BD0FCD
:100A5000462F602F8C2F0E944C0B86E90E946A0162
:100A6000112341F086E90E94620166E07FEF8AEF80
:100A700090E007C08EE10E9462016AEF70E086E0BC
:100A80009FEF0E94F40B60E570E080E090E00E9430
:100A900058090E94880160E070E080E090E00E94C8
:100AA000F40B66E970E080E090E00E94580940E0B5
:100AB00050E060E070E080E090E00E94E10A8AE5AA
:100AC0000E94620184E60E946A016AEF70E080E0A1
:100AD00090E00E945809D13011F0D1E07BCF40E086
:100AE00050E060E070E080E090E00E94E10A4FE0BA
:100AF00060E080E0DF91CF911F910F910C944C0B3F
:100B00000F931F93CF93DF93C6E0D0E068EB7BE0B9
:100B100080E090E00E94BD0FDC01CB0188519C4F2A
:100B2000AF4FBF4F0E947D0160E570E080E090E034
:100B30000E94BD0F062F60E570E080E090E00E940B
:100B4000BD0F162F60E570E080E090E00E94BD0FC1
:100B5000462F50E0612F70E0802F90E00E94E10A64
:100B600064E670E080E090E00E94BD0F162F64E61E
:100B700070E080E090E00E94BD0F062F64E670E018
:100B800080E090E00E94BD0F462F602F812F0E94D1
:100B90004C0B6AEF70E086E09FEF0E94F40B6CE371
:100BA00070E080E090E00E94580968EB7BE080E014
:100BB00090E00E94BD0FDC01CB0188519C4FAF4FEC
:100BC000BF4F0E947D0160E570E080E090E00E94F0
:100BD000BD0F062F60E570E080E090E00E94BD0F41
:100BE000162F60E570E080E090E00E94BD0F462F78
:100BF00050E0612F70E0802F90E00E94E10A64E6EF
:100C000070E080E090E00E94BD0F162F64E670E077
:100C100080E090E00E94BD0F062F64E670E080E067
:100C200090E00E94BD0F462F602F812F0E944C0B39
:100C300066E07FEF8AEF90E00E94F40B6CE370E0D7
:100C400080E090E00E945809219709F05FCF60E0B2
:100C500070E080E090E00E94F40B0E94880140E088
:100C600050E060E070E080E090E00E94E10A4FE038
:100C700060E080E0DF91CF911F910F910C944C0BBD
:100C8000FC01538D448D252F30E0842F90E0821B92
:100C9000930B541710F0CF96089501970895FC0117
:100CA000918D828D981761F0828DDF01A80FB11DA3
:100CB0005D968C91928D9F5F9F73928F90E00895C7
:100CC0008FEF9FEF0895FC01918D828D981731F081
:100CD000828DE80FF11D858D90E008958FEF9FEFD5
:100CE0000895FC01918D228D892F90E0805C9F4FAB
:100CF000821B91098F73992708958EEC92E00E94D0
:100D0000710621E0892B09F420E0822F0895FC016F
:100D1000848DDF01A80FB11DA35ABF4F2C91848D84
:100D200090E001968F739927848FA689B7892C93B9
:100D3000A089B1898C9180648C93938D848D981354
:100D400006C00288F389E02D80818F7D808308951D
:100D5000EF92FF920F931F93CF93DF93EC0181E00B
:100D6000888F9B8D8C8D981305C0E889F9898081C7
:100D700085FD24C0F62E0B8D10E00F5F1F4F0F7303
:100D80001127E02E8C8DE8120CC00FB607FCFACFAD
:100D9000E889F989808185FFF5CFCE010E94870619
:100DA000F1CF8B8DFE01E80FF11DE35AFF4FF0826A
:100DB0000B8FEA89FB898081806207C0EE89FF89F9
:100DC0006083E889F98980818064808381E090E094
:100DD000DF91CF911F910F91FF90EF900895CF93E6
:100DE000DF93EC01888D8823C9F0EA89FB89808133
:100DF00085FD05C0A889B9898C9186FD0FC00FB605
:100E000007FCF5CF808185FFF2CFA889B9898C9145
:100E100085FFEDCFCE010E948706E7CFDF91CF910E
:100E2000089580E090E0892B29F00E947D068111D1
:100E30000C9400000895833081F028F4813099F0FB
:100E40008230A1F008958730A9F08830B9F084305D
:100E5000D1F4809180008F7D03C0809180008F77D6
:100E600080938000089584B58F7702C084B58F7D0C
:100E700084BD08958091B0008F7703C08091B00049
:100E80008F7D8093B0000895089584ED8093BC0019
:100E90008091BC0084FDFCCF1092AA0208950895B1
:100EA000E0916D0280916C02E81730F4F0E0E45BB1
:100EB000FD4F808190E008958FEF9FEF089590910E
:100EC0006D0280916C02981750F4E92FF0E0E45B1A
:100ED000FD4F208130E09F5F90936D0202C02FEFA5
:100EE0003FEFC901089580916C0290E020916D025E
:100EF000821B91090895CF92DF92EF92FF920F9398
:100F00001F93CF93DF937C018A018091AB028823EA
:100F100089F0EB016B01C40ED51ECC15DD05F1F097
:100F20006991D701ED91FC910190F081E02DC7010D
:100F30000995F3CF842F413288F49091AA0294301E
:100F400069F440934202FB0122E232E0D9019A2F78
:100F5000921B981718F491919D93F9CFC801DF91D6
:100F6000CF911F910F91FF90EF90DF90CF90089558
:100F70002091AB022223C9F02091CD02203240F013
:100F800021E030E0FC013383228380E090E008958B
:100F90008091AC02E82FF0E0E355FD4F60838F5F56
:100FA0008093AC028093CD0209C08091AA02843064
:100FB00029F481E0809342026093220281E090E074
:100FC0000895089580E090E008950E940C1C1F92FF
:100FD0000F920FB60F9211242F933F934F935F936D
:100FE0006F937F938F939F93AF93BF93EF93FF93F1
:100FF0008EEC92E00E948706FF91EF91BF91AF9136
:101000009F918F917F916F915F914F913F912F9120
:101010000F900FBE0F901F9018951F920F920FB652
:101020000F9211242F938F939F93EF93FF93E0914F
:10103000DE02F091DF028081E091E402F091E502AE
:1010400082FD12C090818091E7028F5F8F732091A3
:10105000E802821751F0E091E702F0E0E253FD4F21
:10106000958F8093E70201C08081FF91EF919F915E
:101070008F912F910F900FBE0F901F901895CF93C7
:10108000DF93282F30E0F901EE56FF4F8491F901EC
:10109000EA55FF4FD491F901EC53FF4FC491CC2393
:1010A00091F081110E941B07EC2FF0E0EE0FFF1F63
:1010B000E857FF4FA591B491EC91ED2381E090E0CA
:1010C00021F480E002C080E090E0DF91CF910895AC
:1010D0001F93CF93DF93282F30E0F901EE56FF4F97
:1010E0008491F901EA55FF4FD491F901EC53FF4F78
:1010F000C491CC23C9F0162F81110E941B07EC2F3D
:10110000F0E0EE0FFF1FE654FF4FA591B4918FB7AB
:10111000F894111105C09C91ED2FE095E92302C0D0
:10112000EC91ED2BEC938FBFDF91CF911F91089540
:10113000CF93DF9390E0FC01EA55FF4F2491FC012F
:10114000EC53FF4F8491882361F190E0880F991F41
:10115000FC01E258FF4FC591D491FC01E654FF4FCA
:10116000A591B491611109C09FB7F8948881209529
:1011700082238883EC912E230BC0623061F49FB7E9
:10118000F8943881822F809583238883EC912E2BCD
:101190002C939FBF06C08FB7F894E8812E2B28832D
:1011A0008FBFDF91CF9108951F93CF93DF93182FB7
:1011B000EB0161E00E949808209711F460E004C000
:1011C000CF3FD10539F461E0812FDF91CF911F919D
:1011D0000C946808E12FF0E0EE56FF4FE491E33005
:1011E000F9F048F4E130B9F0E230A1F584B580625D
:1011F00084BDC8BD34C0E730E9F0E83019F1E4300F
:1012000049F580918000806280938000D0938B00AC
:10121000C0938A0024C084B5806884BDC7BD1FC048
:1012200080918000806880938000D0938900C09373
:10123000880015C08091B00080688093B000C09392
:10124000B3000DC08091B00080628093B000C09365
:10125000B40005C0C038D1050CF0B5CFAFCFDF91D9
:10126000CF911F9108953FB7F894809148029091D3
:101270004902A0914A02B0914B0226B5A89B05C035
:101280002F3F19F00196A11DB11D3FBFBA2FA92F05
:10129000982F8827820F911DA11DB11DBC01CD0182
:1012A00043E0660F771F881F991F4A95D1F708956D
:1012B0008F929F92AF92BF92CF92DF92EF92FF9266
:1012C0006B017C010E9433094B015C01C114D10404
:1012D000E104F104F1F00E943309DC01CB0188192B
:1012E0009909AA09BB09883E9340A105B10570F38D
:1012F00021E0C21AD108E108F10888EE880E83E0E7
:10130000981EA11CB11CC114D104E104F10419F709
:10131000DDCFFF90EF90DF90CF90BF90AF909F9088
:101320008F9008952FB7F894609144027091450210
:1013300080914602909147022FBF08951F920F920D
:101340000FB60F9211242F933F938F939F93AF93D8
:10135000BF938091440290914502A0914602B091C2
:1013600047023091430226E0230F2D3720F40296E6
:10137000A11DB11D05C029E8230F0396A11DB11DB4
:10138000209343028093440290934502A093460227
:10139000B09347028091480290914902A0914A027D
:1013A000B0914B020196A11DB11D8093480290930C
:1013B0004902A0934A02B0934B02BF91AF919F9113
:1013C0008F913F912F910F900FBE0F901F90189506
:1013D0001F920F920FB60F9211242F933F934F93AA
:1013E0005F936F937F938F939F93AF93BF93EF938D
:1013F000FF93E0910901F0910A010995FF91EF91A6
:10140000BF91AF919F918F917F916F915F914F911C
:101410003F912F910F900FBE0F901F9018951F9224
:101420000F920FB60F9211242F933F934F935F9318
:101430006F937F938F939F93AF93BF93EF93FF939C
:10144000E0910701F09108010995FF91EF91BF919B
:10145000AF919F918F917F916F915F914F913F914C
:101460002F910F900FBE0F901F9018958091BC0088
:1014700087FF76C08091B900887F883211F170F4BF
:101480008031E1F030F4882309F466C08830B1F08F
:1014900008958831B1F0803239F108958034B9F17E
:1014A00028F4803309F1883311F10895803519F15A
:1014B0008835C9F1883409F053C050C08091850245
:1014C00010C09091A7028091A6029817C0F5E091F4
:1014D000A70281E08E0F8093A702F0E0EA57FD4F4C
:1014E00080818093BB0019C08093A80237C080938D
:1014F000A80284EC2CC0E091A70281E08E0F8093BB
:10150000A7028091BB00F0E0EA57FD4F80839091E5
:10151000A7028091A602981710F484EC01C084E819
:101520008093BC000895E091A70281E08E0F809324
:10153000A7028091BB00F0E0EA57FD4F80838091C5
:10154000A90281110BC081E08093840284EA809318
:10155000BC001092AA0208951092A8020C944507AC
:1015600008951092AA0281E08093A9021092840249
:1015700061E082E10E94680861E083E10E946808FE
:10158000E9EBF0E080818E7F808380818D7F808396
:1015900082E08093B80084E48093BC000895FB014E
:1015A00060810E94631A81E090E00895CF93DF93F9
:1015B000EB010E945B1A888381E090E0DF91CF917C
:1015C0000895CF92DF92EF92FF92CF93DF93C42ED4
:1015D000D12CE12CF12CD62AE82AC0E0D0E0809171
:1015E000770390917803C817D90728F4B701A601AB
:1015F000CE010E94EB0D2196CB31D10581F7809170
:101600007D0390917E03892B41F0DF91CF91FF9074
:10161000EF90DF90CF900C94B30CDF91CF91FF90BF
:10162000EF90DF90CF900895362FE42F8C31910505
:101630002CF497FF05C080E090E002C08BE190E0C1
:1016400060917703709178038617970740F4422FD3
:1016500050E060E070E05E2B632B0E94EB0D809108
:101660007D0390917E03892B11F00C94B30C0895A7
:1016700020E030E040E050E060E070E082E090E0A8
:101680000E94140B20E030E040E050E060E070E0A9
:1016900081E090E00C94140BEF92FF920F931F9354
:1016A000CF93DF93E42EF12C062F10E0C82FD0E06B
:1016B0009701A801BE0182E090E00E94140B9701FF
:1016C000A801BE0181E090E0DF91CF911F910F91C1
:1016D000FF90EF900C94140BCF92DF92EF92FF9259
:1016E0000F931F93CF93DF937C0123E0E20EF11C55
:1016F0008C01015F1F4F0B31110514F00AE110E05E
:101700008FE0E816F1041CF09EE0E92EF12CCFE00A
:10171000D0E020E030E040E050E060E070E0CE015A
:101720000E94140B2196CB31D10599F7C3E0D0E08C
:1017300020E030E040E050E060E070E0CE010E9448
:10174000140B2196CF30D10599F78FE0C82ED12CFC
:10175000C016D1066CF420E030E04DEC50E062E3BE
:1017600070E0C6010E94140B2FEFC21AD20AF0CF0C
:1017700003E010E00E151F0564F420E030E04DECAE
:1017800050E062E370E0C8010E94140B0F5F1F4F2E
:10179000F1CF68EB7BE080E090E00E94580920E008
:1017A00030E040E050E060E070E0CE010E94140BB9
:1017B0002196CB31D10599F7C3E0D0E020E030E0AD
:1017C00040E050E060E070E0CE010E94140B2196F2
:1017D000CF30D10599F7DF91CF911F910F91FF90F5
:1017E000EF90DF90CF9008950F931F93CF93DF93E7
:1017F0008C01EB018F3F910509F03CF401308FEF34
:1018000018072CF401E01FEF02C00FEF10E0CF3FEC
:10181000D10509F03CF4C1308FEFD8072CF4C1E0BA
:10182000DFEF02C0CFEFD0E010932102009320023F
:10183000D0931F02C0931E0217FF02C060E001C0D8
:1018400061E08EE00E946808D7FF02C061E001C03D
:1018500060E08FE00E946808B80117FF03C071952F
:101860006195710986E00E94D408BE01D7FF03C0CC
:1018700071956195710985E0DF91CF911F910F916D
:101880000C94D4080F931F93CF93DF931F92CDB77F
:10189000DEB71091CD0200918A03113208F052C0D8
:1018A0008091AA02882319F00E94360AF9CF92E0AB
:1018B0009093AA0291E09093A9029FEF9093A802BF
:1018C0001092A7021093A602ADEAB2E026E832E039
:1018D000F9019E2F921B911718F49D919193F9CFC6
:1018E0001092850220918502902F990F922B909350
:1018F000850290918402913059F410928402909163
:1019000085029093BB0095EC9093BC0094EC01C0D1
:1019100094EE9093BC009091AA02923029F48983AE
:101920000E94360A8981F7CF9091A8029F3F79F0F3
:101930008091A802803241F08091A802803331F07A
:1019400084E005C081E003C082E001C083E0109222
:10195000AC021092CD021092AB020F90DF91CF91AA
:101960001F910F9108950F931F93CF93DF93CDB7DE
:10197000DEB729970FB6F894DEBF0FBECDBF0E9429
:1019800033090091830310918403209185033091E2
:101990008603DC01CB01801B910BA20BB30BC2971A
:1019A000A105B10560F3F8948091790390917A03D1
:1019B0009A838983E0917D03F0917E03DF01119684
:1019C0008081898780918203E0918703F091880369
:1019D00081FFBBC01B82EB32F10509F058C09BB1FF
:1019E00080918903982B98879BB1809589238F8359
:1019F0008F818C83898587FF02C088858C83588579
:101A00006F8149853C812B8189819A815BB9262F21
:101A10003BB900C046FD252F6BB900C05BB9362F1E
:101A20002BB900C045FD352F6BB900C05BB9262F1F
:101A30003BB900C044FD252F6BB900C05BB9362F00
:101A40002BB900C043FD352F6BB900C05BB9262F01
:101A50003BB900C042FD252F6BB900C05BB9362FE2
:101A60002BB900C041FD352F6BB900C05BB9262FE3
:101A70003BB900C040FD252F6BB901975BB9362FEC
:101A80002BB94D9147FD352F6BB901F65AC0B5976B
:101A900009F08BC095B180918903982B988795B1F7
:101AA000809589238F838F818C83898587FF02C0EE
:101AB00088858C8358856F8149853C812B818981FC
:101AC0009A8155B9262F35B900C046FD252F65B935
:101AD00000C055B9362F25B900C045FD352F65B971
:101AE00000C055B9262F35B900C044FD252F65B972
:101AF00000C055B9362F25B900C043FD352F65B953
:101B000000C055B9262F35B900C042FD252F65B953
:101B100000C055B9362F25B900C041FD352F65B934
:101B200000C055B9262F35B900C040FD252F65B935
:101B3000019755B9362F25B94D9147FD352F65B918
:101B400001F649873C832B832EC0908180918903C5
:101B5000982B98879081809589238F838F818E839E
:101B600088E08D8358856F8149853D812E818981EB
:101B70009A81508347FD252F2083262F3A9531F0F7
:101B8000441F608300C000C000C0F3CF608300002A
:101B900038E04D91019769F7F0938803E09387034C
:101BA00049873D832E839A83898378940E943309E1
:101BB00060938303709384038093850390938603DB
:101BC00029960FB6F894DEBF0FBECDBFDF91CF913F
:101BD0001F910F9108958F929F92AF92BF92CF92D3
:101BE000DF92EF92FF924B01AA24BB24F82DC52E61
:101BF000D62EE72EFF24EC2D342F20917C032223B8
:101C000061F0829E40011124F92DC29E60011124D1
:101C1000ED2D429FA0011124352FAC01440F551F1B
:101C2000840F951F40917D0350917E03840F951F73
:101C300020917F03DC01A20FB11DFC932091800352
:101C4000DC01A20FB11DEC9320918103FC01E20F96
:101C5000F11D3083FF90EF90DF90CF90BF90AF9059
:101C60009F908F900895CF93DF93EB0191E0909335
:101C7000AB029BE690938A031092AC021092CD02C5
:101C8000682F8BE693E00E94B80768818BE693E0AB
:101C90000E94B807DF91CF910C94420CEF92FF9213
:101CA0000F931F93CF93DF931F92CDB7DEB7062F0D
:101CB00010926D0210926C021092AC021092CD0242
:101CC00089830E94B10A91E09093AB0292E39093D2
:101CD0008A038981682F8BE693E00E94B80710E0A1
:101CE000E02EF12C812F012E000C990B8E159F05F3
:101CF00054F4FC01E259FD4F60818BE693E00E94B1
:101D0000B8071F5FEFCF0F90DF91CF911F910F9119
:101D1000FF90EF900C94420C8C3D95404CF480ED7C
:101D200097E00E947D0140E060E584E60E944C0B54
:101D300069E170E080E090E00E9458090E9488010B
:101D40000C94380B009769F0FC0101900020E9F732
:101D50003197AF01481B590BBC018EEC92E00C94FB
:101D6000920F80E090E008958F929F92AF92BF9281
:101D70000F931F93CF93DF93CDB7DEB7A1970FB625
:101D8000F894DEBF0FBECDBF19A2423008F44AE07E
:101D90008E010F5D1F4F842E912CA12CB12CA5011B
:101DA00094010E94A31AE62FB901CA01015011093A
:101DB000EA3014F4E05D01C0E95CD801EC93232B18
:101DC000242B252B61F7C8010E94A20EA1960FB605
:101DD000F894DEBF0FBECDBFDF91CF911F910F9161
:101DE000BF90AF909F908F900895CF92DF92EF9227
:101DF000FF92CF93DF936B017C01E091CE02F091D3
:101E0000CF020190F081E02D6DE28EEC92E0099519
:101E1000EC0166277727CB016C197D098E099F0994
:101E20004AE00E94B40E8C0F9D1FDF91CF91FF906E
:101E3000EF90DF90CF900895CF93DF93C62F91E07E
:101E40009093AB0292E390938A031092AC021092AB
:101E5000CD02682F8BE693E00E94B8070E94420CE7
:101E600080E690E00197F1F78091AA02882319F0AB
:101E70000E94360AF9CFC13208F0C0E281E08093B7
:101E8000AA028093A9029FEF9093A8021092A70242
:101E90009C0F9093A60280938502809185028466B0
:101EA0008093850280918402813041F410928402F3
:101EB000809185028093BB0084EC01C084EE809306
:101EC000BC008091AA02813019F40E94360AF9CF31
:101ED0008091A7028C1710F4C091A702A6E8B2E087
:101EE0002CE432E0F9018E2F821B8C1718F48D91AF
:101EF0008193F9CF10926D02C0936C02D0E0809173
:101F00006D02C81759F08BE693E00E945F07ED2F32
:101F1000F0E0E259FD4F8083DF5FF1CF8D2FDF913D
:101F2000CF910895CF92DF92EF92FF920F931F937C
:101F3000CF93DF936C017A018B01C0E0D0E0CE1526
:101F4000DF0589F0D8016D918D01D601ED91FC91ED
:101F50000190F081E02DC6010995892B11F47E01D5
:101F600002C02196ECCFC701DF91CF911F910F9155
:101F7000FF90EF90DF90CF900895CF93DF9300D044
:101F800000D0CDB7DEB7611571058105910579F0F7
:101F90009B01AC0169833A834B835C830E94241AC2
:101FA00029813A814B815C810E94711A03C060E0F3
:101FB00070E0CB010F900F900F900F90DF91CF91B9
:101FC0000895CF93DF93CDB7DEB765970FB6F8943A
:101FD000DEBF0FBECDBF789484B5826084BD84B56A
:101FE000816084BD85B5826085BD85B5816085BD14
:101FF00080916E00816080936E00109281008091CC
:102000008100826080938100809181008160809353
:102010008100809180008160809380008091B10078
:1020200084608093B1008091B00081608093B000A3
:1020300080917A00846080937A0080917A00826037
:1020400080937A0080917A008E7F80937A008091CD
:102050007A00806880937A001092C10061E087E086
:102060000E94980860E087E00E94680840E050E025
:1020700060E070E080E090E00E94E10A60E08AE0C9
:102080000E94980860E08BE00E94980860E08DE074
:102090000E94980861E08CE00E94980860E08CE063
:1020A0000E94680862E082E00E94980860E089E08F
:1020B0000E949808E091DE02F091DF0282E08083C6
:1020C000E091DA02F091DB021082E091DC02F09103
:1020D000DD0210E110831092E602E091E202F0913D
:1020E000E30286E08083E091E002F091E1028081EA
:1020F00080618083E091E002F091E102808188605C
:102100008083E091E002F091E10280818068808329
:10211000E091E002F091E10280818F7D808360E0B8
:1021200087E00E94680861E087E00E9498081092AA
:102130006D0210926C021092AC021092CD020E94BD
:10214000B10A1D83BE016B5F7F4F82E20E94330E96
:102150008FE08C83BE016C5F7F4F80E20E94330E64
:10216000BE016D5F7F4F89EF93E00E94D60ABE01EA
:102170006E5F7F4F8AEF93E00E94D60ABE016F5FC9
:102180007F4F8BEF93E00E94D60A909101018B81E3
:10219000911103C0809301010AC090910101891738
:1021A00031F061E071E089EF93E00E94CF0A9091F5
:1021B0006E018A81911103C080936E010AC09091D3
:1021C0006E01891731F06EE671E08AEF93E00E94AC
:1021D000CF0A909100018981911103C08093000181
:1021E0000AC090910001891731F060E071E08BEF37
:1021F00093E00E94CF0A80910101815880936E0282
:1022000061E087E30E944E0E80916E0181588093B9
:102210006E0261E088E30E944E0E809100018158B9
:1022200080936E0261E089E30E944E0E7FE6E72E06
:1022300071E0F72E0CEF13E0C8010E945B1AF70162
:1022400081937F010F5F1F4F0115F4E01F07A1F776
:10225000C0906F01D0907001E0907101F090720118
:102260002AE939E949E55FE3C701B6010E94D41ABA
:1022700087FD12C023E333E343E95FE3C701B601FF
:102280000E94321A181644F0C0920201D092030143
:10229000E0920401F09205010E94880185E180939B
:1022A0004A0165E00E941C0F80916F0290E0982F18
:1022B000882720917002822B90937601809375017C
:1022C0008091710290E0982F882720917202822BD2
:1022D00090937401809373010E94920960937D0131
:1022E00070937E0180937F01909380010E949209F8
:1022F000609378017093790180937A0190937B01C8
:1023000081E08093770185E68EBD10924C0110929A
:102310004D0110924E0110924F01109250011092F7
:102320005101109252011092530110925401809168
:102330004C01E0914D0170914E0160914F0150911F
:1023400050014091510130915201209153019091DF
:1023500054018E278727862785278427832782276E
:1023600089278093550110925701109256018CB520
:1023700080648CBD8CB580688CBD40E050E060E02E
:1023800070E080E090E00E94E10A88EE93E00E9415
:102390007D0142E360E088E20E944C0B62E370E062
:1023A00080E090E00E94580980ED97E00E947D0156
:1023B00062E370E080E090E00E94580988EB9BE0C7
:1023C0000E947D0162E370E080E090E00E94580985
:1023D00080EA9FE00E947D0164E670E080E090E08A
:1023E0000E9458090E9488010E94380B88EB9BE0EC
:1023F0000E94720184E60E946A018AE50E946201DD
:102400008AE00E9453010E94D101609158017091AD
:102410005901072E000C880B990B61157105810578
:10242000910511F00E94291A0E94340411E01093C2
:102430006E0261E081E40E944E0E45E050E060E0F3
:1024400070E080E090E00E94E10A2AE030E040E0A5
:1024500050E060E070E08EE090E00E94140B2AE013
:1024600030E040E050E060E070E08AE190E00E94FF
:10247000140B8091060190E00E946C0B0E94980062
:10248000882309F442C00E94F80110937C018FEF69
:10249000809306013AC060E070E080E090E00E9426
:1024A000F40B0E94880162E370E080E090E00E94FB
:1024B00058090E949800882301F160E070E080E0F4
:1024C00090E00E94F40B0E94880122E02093060114
:1024D0008091060190E00E946C0B64E670E080E061
:1024E00090E00E9458090E9498008111FCCF64E698
:1024F00070E080E090E00E9458090E94E80062E3EA
:1025000070E080E090E00E945809809106018130DF
:1025100011F237C00E94410180329340B8F10E940D
:102520009800882331F162E370E080E090E00E943F
:10253000580923E0209306018091060190E00E9453
:102540006C0B64E670E080E090E00E94580960E067
:1025500070E080E090E00E94F40B0E9488010E94ED
:1025600098008111FCCF64E670E080E090E00E946A
:1025700058090E94E80062E370E080E090E00E9469
:10258000580980910601823029F213C26BE070E095
:1025900080E090E00E94BD0FDC01CB010196A11DFF
:1025A000B11D092E000CAA0BBB0BFC013197EB30BF
:1025B000F10508F0B4CFEC5CFF4F0C94D91A88EE0B
:1025C00093E00E947D0148E760E080E00E944C0BB0
:1025D00062E370E080E090E00E94580980ED97E0AF
:1025E0000E947D0162E370E080E090E00E94580963
:1025F00088EB9BE00E947D0162E370E080E090E068
:102600000E94580980EA9FE00E947D0164E670E024
:1026100080E090E00E94580948E768E780E00E9467
:102620004C0B62E370E080E090E00E94580980EA81
:102630009FE00E947D0162E370E080E090E00E94F4
:10264000580988E893E10E947D0162E370E080E030
:1026500090E00E94580980E797E10E947D0164E6BE
:1026600070E080E090E00E9458090E9488014AE0F2
:1026700060E080E00E944C0B64EF71E080E090E04D
:1026800045C00E9480054BCF86E990E00E94720110
:102690004CE360E084E60E944C0B80EA9FE00E94DD
:1026A0007D018FE00E946A010E94C6020E9488019B
:1026B00088EB9BE00E94720188E20E9453016EEE5B
:1026C00072E080E090E00E94580986E990E00E9464
:1026D000720183E70E9453010E94C60288E20E94B1
:1026E00053010E94C60288EB9BE00E9472018AE0BF
:1026F0000E94530184E60E946A0144E160E080E0A8
:102700000E944C0B6CE271E080E090E00E9458095E
:1027100006CF0AE010E0312C64E670E080E090E043
:102720000E94BD0F6B017C01F2E3CF0ED11CE11CB6
:10273000F11C6CEA7DE080E090E00E94BD0F4B014F
:102740005C0168E770E080E090E00E94BD0F262FFA
:1027500068E770E080E090E02D8B0E94BD0F362F7F
:1027600068E770E080E090E03C8B0E94BD0F262E71
:1027700068E770E080E090E00E94BD0F2B013C0113
:1027800068E770E080E090E00E94BD0F6E837F8379
:102790008887998768E770E080E090E00E94BD0F2D
:1027A000AB016E817F81C2010E94E10A422D3C890A
:1027B000632F2D89822F0E944C0BD501C4018851B3
:1027C0009C4FAF4FBF4F0E947D01882799278C19DE
:1027D0009D09332031F0BC01C6010E94F40B312C5D
:1027E00005C0B6010E94F40B3324339464E670E014
:1027F00080E090E00E9458090150110909F08CCF47
:1028000060E070E080E090E00E94F40BBFC040E028
:1028100060E088EC0E944C0B88EE93E00E9472010D
:1028200088EE93E00E947D018CE80E9462010E9484
:10283000C60288E20E9462010E94C6028CE80E94E1
:1028400062010E94C60288E20E9462010E94C602E2
:102850008AE50E94620124C040E068EC80E00E94AA
:102860004C0B88EE93E00E94720188EB9BE00E9483
:102870007D0186E90E946A010E94C60282E30E94ED
:102880006A010E94C60286E90E946A010E94C6028D
:1028900082E30E946A010E94C60284E60E946A01E5
:1028A0000E94C60288EB9BE00E9472014FE060E04C
:1028B00080E00E944C0B0E94880131CE0FE010E0B6
:1028C00060EA7FE080E090E00E94BD0F6B017C0138
:1028D00068E770E080E090E00E94BD0F2B013C01B2
:1028E00068E770E080E090E00E94BD0F6E837F8318
:1028F0008887998768E770E080E090E00E94BD0FCC
:102900009B01AC0168E770E080E090E02D8B3C8B90
:102910004A8B5B8B0E94BD0F6A877B878C879D8764
:1029200068E770E080E090E00E94BD0F6E877F87CF
:10293000888B998B68E770E080E090E00E94BD0F83
:102940004B015C012D893C894E815F81B20181E0A0
:1029500090E00E94140B94014E855F856A857B850B
:1029600082E090E00E94140BD701C60188519C4F71
:10297000AF4FBF4F0E947D0162E370E080E090E0C6
:102980000E9458090150110909F09ACF0E9488014C
:1029900040E050E060E070E080E090E00E94E10AFA
:1029A00044E160E080E00E944C0BB9CD0E94DA0463
:1029B000B6CD44E0742E80910601833009F0BAC38D
:1029C0006AE570E08AE590E00E94F40B0E949209AB
:1029D00060937D0170937E0180937F0190938001CD
:1029E0000E94920900917D0110917E0120917F014A
:1029F000309180010053184F2F4F3F4F60177107E0
:102A00008207930708F0A8C20E948C0165E070E07D
:102A100080E090E00E94580940916C0150916D0156
:102A200080916A0190916B019C0122533109241716
:102A300035074CF420916C0130916D01C296281736
:102A400039070CF408C168E87FEF88E89FEF0E941F
:102A5000F40B68EC70E080E090E00E94580966EAB0
:102A60007FEF84EC9FEF0E94F40B85E594E00E94D9
:102A70007D0188E790E00E9472018DE20E94620170
:102A80008EE10E946A0160E570E080E090E00E94C3
:102A9000BD0F062F60E570E080E090E00E94BD0F62
:102AA000162F60E570E080E090E00E94BD0F462F99
:102AB00050E0612F70E0802F90E00E94E10A64E610
:102AC00070E080E090E00E94BD0F162F64E670E099
:102AD00080E090E00E94BD0F062F64E670E080E089
:102AE00090E00E94BD0F462F602F812F0E944C0B5B
:102AF00093E3892E912C0E948C018091600190912A
:102B00006101E0905E01F0905F015701E2E3AE1ACF
:102B1000B108A816B9060CF047C3809160019091E6
:102B20006101F2E3EF0EF11C8E159F050CF03CC322
:102B300080915C0190915D0100915A0110915B01BF
:102B4000680122E3C21AD108C816D9060CF02CC3BA
:102B500080915C0190915D010E5C1F4F8017910781
:102B60000CF022C368E070E080E090E00E94580919
:102B7000E1E08E1A910809F0BECF0E94880160EB57
:102B80007FEF80E590E00E94F40B37E4832E912CD8
:102B90000E948C018091600190916101A816B90694
:102BA0000CF002C380916001909161018E159F0528
:102BB0000CF0FAC280915C0190915D01C816D906B3
:102BC0000CF0F2C280915C0190915D018017910739
:102BD0000CF0EAC268E070E080E090E00E945809E2
:102BE000F1E08F1A9108A1F660E070E080E090E0DB
:102BF0000E94F40B8AE50E94620184E60E946A0149
:102C00000E94C60288EB9BE00E94720162E370E0C2
:102C100080E090E00E94580940E050E060E070E001
:102C200080E090E00E94E10A0E94340444E160E008
:102C300080E00E944C0B0E94920960937D0170938A
:102C40007E0180937F01909380016AE570E08AE5C0
:102C500090E00E94F40B40916801509169018091CD
:102C60006601909167019C012253310924173507B1
:102C70004CF42091680130916901C29628173907F8
:102C80000CF408C168E87FEF88E89FEF0E94F40B1E
:102C900068EC70E080E090E00E94580964EC7FEFFF
:102CA00086EA9FEF0E94F40B85E594E00E947D0187
:102CB00088E790E00E94720187E80E9462018EE13D
:102CC0000E946A0160E570E080E090E00E94BD0F24
:102CD000062F60E570E080E090E00E94BD0F162FA7
:102CE00060E570E080E090E00E94BD0F462F50E06C
:102CF000612F70E0802F90E00E94E10A64E670E0AE
:102D000080E090E00E94BD0F162F64E670E080E046
:102D100090E00E94BD0F062F64E670E080E090E036
:102D20000E94BD0F462F602F812F0E944C0B83E322
:102D3000C82ED12C0E948C0180916001909161017C
:102D400000915E0110915F015801E2E3AE1AB108F3
:102D5000A816B9060CF055C28091600190916101EE
:102D60000E5C1F4F801791070CF04BC280915C01E5
:102D700090915D01E0905A01F0905B014701F2E310
:102D80008F1A9108881699060CF03BC280915C015D
:102D900090915D0122E3E20EF11C8E159F050CF06F
:102DA00030C268E070E080E090E00E94580921E0C5
:102DB000C21AD10809F0BECF0E94880160E570E018
:102DC00080EB9FEF0E94F40B27E4C22ED12C0E94CF
:102DD0008C018091600190916101A816B9060CF0F8
:102DE00010C28091600190916101801791070CF0F1
:102DF00008C280915C0190915D01881699060CF0E3
:102E000000C280915C0190915D018E159F050CF0D0
:102E1000F8C168E070E080E090E00E94580981E02D
:102E2000C81AD108A1F660E070E080E090E00E944E
:102E3000F40B8AE50E94620184E60E946A010E9406
:102E4000C60288EB9BE00E94720162E370E080E0C2
:102E500090E00E94580940E050E060E070E080E0BF
:102E600090E00E94E10A0E94340444E160E080E0C6
:102E70000E944C0B0E94920960937D0170937E0129
:102E800080937F01909380016AE570E08AE590E08D
:102E90000E94F40B0E944101803D974088F560E05C
:102EA00070E080E090E00E94F40B0E94F40288231E
:102EB00029F064E670E08CE99FEF04C06CE97FEFD5
:102EC00084E690E00E94F40B6EEE72E080E090E009
:102ED0000E94580960E070E080E090E00E94F40BEE
:102EE0000E94920960937D0170937E0180937F011F
:102EF000909380016AE570E08AE590E00E94F40B0F
:102F00000E949800882329F17092060180910601A1
:102F100090E00E946C0B40E06AE08AE00E944C0B5B
:102F200064E670E080E090E00E94580960E070E0A4
:102F300080E090E00E94F40B0E9488010E949800BB
:102F40008111FCCF64E670E080E090E00E945809B7
:102F500003C00E94E80044CD6CE070E080E090E0A7
:102F60000E94BD0F623009F452C0633009F464C09E
:102F7000613009F075C068E87FEF88E89FEF0E9434
:102F8000F40B6CE271E080E090E00E94580960E090
:102F900070E080E090E00E94F40B6FEF70E081E061
:102FA0009FEF0E94F40B44E650E060E070E084E69E
:102FB00090E00E94E10A46E962E380E00E944C0B47
:102FC00008EE13E0C8010E947D0164E670E080E035
:102FD00090E00E9458090C591F4F0430F0E11F0780
:102FE00089F760E070E080E090E00E94F40B0E94BE
:102FF000880140E050E060E070E080E090E00E94F6
:10300000E10A44E160E080E00E944C0B29C068E8DE
:103010007FEF88E89FEF0E94F40B6CE271E080E0A4
:1030200090E00E94580960E070E080E090E00E942B
:10303000F40B0E94800514C064EC7FEF84EC9FEFDA
:103040000E94F40B66E970E080E090E00E9458096D
:1030500060E070E080E090E00E94F40B0E94DA04EF
:1030600062E370E080E090E00E9458090E949209BB
:1030700060937D0170937E0180937F019093800126
:1030800060E070E080E090E00E94F40B94CC40E0BF
:103090006AE08AE00E944C0B0E94D10120916401F9
:1030A00030916501809162019091630182179307CD
:1030B0000CF046C06CE870E088E290E00E94F40BEF
:1030C0000E944101803D974008F43FC00E94980053
:1030D000882341F14AE050E06AE070E080E090E04F
:1030E0000E94E10A60E070E080E090E00E94F40B52
:1030F0000E94880181E0809306018091060190E0A2
:103100000E946C0B64E670E080E090E00E94580939
:103110000E9498008111FCCF64E670E080E090E0AE
:103120000E9458090E94E80062E370E080E090E0AD
:103130000E94580980910601843009F4A8CF27C065
:1031400068E270E08CE890E0B9CF60E070E080E089
:1031500090E00E94F40B0E94F402882329F064E6B8
:1031600070E08CE99FEF04C06CE97FEF84E690E0AB
:103170000E94F40B6EEE72E080E090E00E9458092D
:1031800060E070E080E090E00E94F40B9FCF8091BF
:103190007C01882331F00E9498008823E1F30E948B
:1031A000F8010E941107B1C962E370E082E390E088
:1031B0000E94F40B68EC70E080E090E00E945809F7
:1031C00060E070E080E090E00E94F40B0E948801D3
:1031D0000E9434048AE50E94620184E60E946A012A
:1031E0000E94C60288EB9BE00E94720140E050E022
:1031F00060E070E080E090E00E94E10A44E164E178
:1032000017CD62E370E082E390E00E94F40B68EC7B
:1032100070E080E090E00E94580960E070E080E09B
:1032200090E00E94F40B0E9488010E9434048AE519
:103230000E94620184E60E946A010E94C60288EB35
:103240009BE00E94720140E050E060E070E080E0AE
:1032500090E00E94E10A44E164E109CE80917D039F
:1032600090917E03009711F00E94741B60E08091A2
:103270007B030C9498081092D1021092D00288EE31
:1032800093E0A0E0B0E08093D2029093D302A093A9
:10329000D402B093D50229E131E03093CF022093DC
:1032A000CE0225EC30E03093DB022093DA0224ECEE
:1032B00030E03093DD022093DC0220EC30E03093EC
:1032C000DF022093DE0221EC30E03093E102209314
:1032D000E00222EC30E03093E3022093E20226EC9D
:1032E00030E03093E5022093E4021092E70210925E
:1032F000E8021092E9021092EA0210926E03109214
:103300006D0380936F0390937003A0937103B09348
:1033100072038BE291E090936C0380936B038BE1DB
:1033200090E0909378038093770381E590E0909309
:103330007A038093790387E080937B0310927C0368
:1033400083E080938203109283031092840310928F
:10335000850310928603EBECF0E0E491F0E0EE0FD1
:10336000FF1FE654FF4F85919491909388038093BB
:103370008703EDEAF0E0E491E093890381E590E0D2
:103380000E94DF1A90937E0380937D03009729F0BB
:1033900021E5FC0111922A95E9F781E080937F03F2
:1033A0001092800382E08093810308958F929F9210
:1033B000AF92BF92CF92DF92EF92FF92CF93DF93C3
:1033C000EC01688179818A819B8161157105810594
:1033D000910521F464E279ED8BE597E02DE133EF7F
:1033E00041E050E00E94711A49015A019B01AC0171
:1033F000A7EAB1E40E94901A6B017C01ACEEB4EF35
:10340000A50194010E949E1ADC01CB018C0D9D1D2B
:10341000AE1DBF1DB7FF03C00197A109B048888347
:103420009983AA83BB83BC01CD019F77DF91CF91A4
:10343000FF90EF90DF90CF90BF90AF909F908F90D4
:1034400008950E94D61908958BE091E00E94D61944
:10345000089560930B0170930C0180930D0190937C
:103460000E0108950E94371A08F481E00895990F1B
:103470000008550FAA0BE0E8FEEF16161706E8073E
:10348000F907C0F012161306E407F50798F0621B5F
:10349000730B840B950B39F40A2661F0232B242B34
:1034A000252B21F408950A2609F4A140A6958FEF53
:1034B000811D811D0895F999FECF92BD81BDF89AB5
:1034C000992780B50895262FF999FECF1FBA92BD8E
:1034D00081BD20BD0FB6F894FA9AF99A0FBE0196F5
:1034E0000895052E97FB1EF400940E94881A57FD3C
:1034F00007D00E94A31A07FC03D04EF40C94881A3C
:1035000050954095309521953F4F4F4F5F4F08950F
:1035100090958095709561957F4F8F4F9F4F08953F
:103520000E94C51AA59F900DB49F900DA49F800D79
:10353000911D11240895B7FF0C94901A0E94901ABF
:10354000821B930B0895A1E21A2EAA1BBB1BFD013F
:103550000DC0AA1FBB1FEE1FFF1FA217B307E40772
:10356000F50720F0A21BB30BE40BF50B661F771FCA
:10357000881F991F1A9469F76095709580959095AA
:103580009B01AC01BD01CF010895A29FB001B39F83
:10359000C001A39F700D811D1124911DB29F700D5C
:1035A000811D1124911D08950E94371A08F48FEF90
:1035B0000895EE0FFF1F0590F491E02D0994CF932D
:1035C000DF938230910510F482E090E0E0918D036A
:1035D000F0918E0320E030E0C0E0D0E0309711F1B0
:1035E0004081518148175907C0F04817590761F4C5
:1035F00082819381209719F09B838A832BC09093BB
:103600008E0380938D0326C02115310519F04217D2
:10361000530718F49A01BE01DF01EF010280F38124
:10362000E02DDCCF2115310509F1281B390B2430A1
:10363000310590F412968D919C9113976115710547
:1036400021F0FB019383828304C090938E038093C7
:103650008D03FD01329644C0FD01E20FF31F8193FB
:103660009193225031092D933C933AC020918B03C2
:1036700030918C03232B41F42091110130911201E0
:1036800030938C0320938B0320910F013091100114
:103690002115310541F42DB73EB7409113015091EA
:1036A0001401241B350BE0918B03F0918C03E2177E
:1036B000F307A0F42E1B3F0B2817390778F0AC0155
:1036C0004E5F5F4F2417350748F04E0F5F1F509332
:1036D0008C0340938B038193919302C0E0E0F0E070
:1036E000CF01DF91CF9108950F931F93CF93DF9375
:1036F000009709F48CC0FC0132971382128200916A
:103700008D0310918E030115110581F42081318103
:10371000820F931F20918B0330918C032817390758
:1037200079F5F0938C03E0938B0371C0D80140E0EE
:1037300050E0AE17BF0750F412962D913C911397AD
:10374000AD012115310509F1D901F3CF9D01DA0150
:103750003383228360817181860F971F82179307BD
:1037600069F4EC0128813981260F371F2E5F3F4F06
:10377000318320838A819B8193838283452B29F423
:10378000F0938E03E0938D0342C01396FC93EE9367
:103790001297ED01499159919E01240F351FE217AF
:1037A000F30771F480819181840F951F0296119621
:1037B0009C938E938281938113969C938E93129700
:1037C000E0E0F0E0D80112968D919C91139700975C
:1037D00019F0F8018C01F6CF8D919C9198012E5F24
:1037E0003F4F820F931F20918B0330918C0328173A
:1037F000390769F4309729F410928E0310928D03E3
:1038000002C01382128210938C0300938B03DF910A
:10381000CF911F910F91089581E090E0F8940C945E
:10382000111C10E0CDE6D0E004C0FE010E94D91AC0
:0C3830002196CE36D107C9F7F894FFCFDF
:10383C00FF190000803F014407440701000000000D
:10384C00008F03800000000000A806920F4006EFD6
:10385C000671064F06630600000000B8077B07E2FE
:10386C00074F0773075F075007626173656C696EDA
:0A387C00653A200009000D0A000063
:00000001FF
