:100000000C946E000C9467040C9440040C949600BD
:100010000C9496000C9496000C9496000C94960008
:100020000C9496000C9496000C9496000C949600F8
:100030000C9496000C9496000C9496000C949600E8
:100040000C94F6030C9434060C948E020C94680203
:100050000C9496000C9496000C9496000C949600C8
:100060000C9496000C949600F2134C144F149414B4
:10007000121537156915E1150116341637160000EB
:100080000000240027002A000000000023002600B2
:10009000290000000008000201000003040700001E
:1000A000000000000000010204081020408001024E
:1000B00004081020010204081020000000002500A0
:1000C00028002B00040404040404040402020202B5
:1000D0000202030303030303B31AA61A11241FBE6B
:1000E000CFEFD8E0DEBFCDBF11E0A0E0B1E0ECE69D
:1000F000FBE302C005900D92AC36B107D9F724E0BE
:10010000ACE6B1E001C01D92A130B207E1F710E00A
:10011000CDE6D0E004C02197FE010E94711CCC36D0
:10012000D107C9F70E94B30F0C94A91D0C940000CD
:10013000FC01538D448D252F30E0842F90E0821BED
:10014000930B541710F0CF96089501970895FC0172
:10015000918D828D981761F0828DDF01A80FB11DFE
:100160005D968C91928D9F5F9F73928F90E0089522
:100170008FEF9FEF0895FC01918D828D981731F0DC
:10018000828DE80FF11D858D90E008958FEF9FEF30
:100190000895FC01918D228D892F90E0805C9F4F06
:1001A000821B91098F739927089588EF92E00E942E
:1001B000C90021E0892B09F420E0822F0895FC0179
:1001C000848DDF01A80FB11DA35ABF4F2C91848DE0
:1001D00090E001968F739927848FA689B7892C9315
:1001E000A089B1898C9180648C93938D848D9813B0
:1001F00006C00288F389E02D80818F7D8083089579
:10020000EF92FF920F931F93CF93DF93EC0181E066
:10021000888F9B8D8C8D981305C0E889F989808122
:1002200085FD24C0F62E0B8D10E00F5F1F4F0F735E
:100230001127E02E8C8DE8120CC00FB607FCFACF08
:10024000E889F989808185FFF5CFCE010E94DF0022
:10025000F1CF8B8DFE01E80FF11DE35AFF4FF082C5
:100260000B8FEA89FB898081806207C0EE89FF8954
:100270006083E889F98980818064808381E090E0EF
:10028000DF91CF911F910F91FF90EF900895CF9341
:10029000DF93EC01888D8823C9F0EA89FB8980818E
:1002A00085FD05C0A889B9898C9186FD0FC00FB660
:1002B00007FCF5CF808185FFF2CFA889B9898C91A1
:1002C00085FFEDCFCE010E94DF00E7CFDF91CF9118
:1002D000089580E090E0892B29F00E94D5008111DB
:1002E0000C9400000895833081F028F4813099F057
:1002F0008230A1F008958730A9F08830B9F08430B9
:10030000D1F4809180008F7D03C0809180008F7731
:1003100080938000089584B58F7702C084B58F7D67
:1003200084BD08958091B0008F7703C08091B000A4
:100330008F7D8093B0000895CF93DF93282F30E016
:10034000F901EE56FF4F8491F901EA55FF4FD49120
:10035000F901EC53FF4FC491CC2391F081110E941D
:100360007301EC2FF0E0EE0FFF1FE857FF4FA59150
:10037000B491EC91ED2381E090E021F480E002C0A3
:1003800080E090E0DF91CF910895089584ED80930F
:10039000BC008091BC0084FDFCCF1092D402089573
:1003A0000895E091970280919602E81730F4F0E00A
:1003B000EA58FD4F808190E008958FEF9FEF0895F8
:1003C0009091970280919602981750F4E92FF0E0EF
:1003D000EA58FD4F208130E09F5F9093970202C062
:1003E0002FEF3FEFC90108958091960290E0209190
:1003F0009702821B91090895CF92DF92EF92FF92AC
:100400000F931F93CF93DF937C018A018091D502D4
:10041000882389F0EB016B01C40ED51ECC15DD05D8
:10042000F1F06991D701ED91FC910190F081E02DFF
:10043000C7010995F3CF842F413288F49091D402FB
:10044000943069F44093DC01FB012CEB31E0D901DD
:100450009A2F921B981718F491919D93F9CFC80188
:10046000DF91CF911F910F91FF90EF90DF90CF9090
:1004700008952091D5022223C9F02091F70220325D
:1004800040F021E030E0FC013383228380E090E003
:1004900008958091D602E82FF0E0E952FD4F608385
:1004A0008F5F8093D6028093F70209C08091D402B7
:1004B000843029F481E08093DC016093BC0181E009
:1004C00090E00895089580E090E008950E94A41DB2
:1004D0001F920F920FB60F9211242F933F934F93B9
:1004E0005F936F937F938F939F93AF93BF93EF939C
:1004F000FF9388EF92E00E94DF00FF91EF91BF91A0
:10050000AF919F918F917F916F915F914F913F91AB
:100510002F910F900FBE0F901F9018951F920F9262
:100520000FB60F9211242F938F939F93EF93FF9306
:10053000E0910803F09109038081E0910E03F091AE
:100540000F0382FD12C09081809111038F5F8F7322
:1005500020911203821751F0E0911103F0E0E8506E
:10056000FD4F958F8093110301C08081FF91EF9122
:100570009F918F912F910F900FBE0F901F90189504
:100580001F93CF93DF93282F30E0F901EE56FF4FF2
:100590008491F901EA55FF4FD491F901EC53FF4FD3
:1005A000C491CC23C9F0162F81110E947301EC2F46
:1005B000F0E0EE0FFF1FE654FF4FA591B4918FB707
:1005C000F894111105C09C91ED2FE095E92302C02C
:1005D000EC91ED2BEC938FBFDF91CF911F9108959C
:1005E000CF93DF9390E0FC01EA55FF4F2491FC018B
:1005F000EC53FF4F8491882361F190E0880F991F9D
:10060000FC01E258FF4FC591D491FC01E654FF4F25
:10061000A591B491611109C09FB7F8948881209584
:1006200082238883EC912E230BC0623061F49FB744
:10063000F8943881822F809583238883EC912E2B28
:100640002C939FBF06C08FB7F894E8812E2B288388
:100650008FBFDF91CF9108951F93CF93DF93182F12
:10066000EB0161E00E94F002209711F460E004C009
:10067000CF3FD10539F461E0812FDF91CF911F91F8
:100680000C94C002E12FF0E0EE56FF4FE491E3300E
:10069000F9F048F4E130B9F0E230A1F584B58062B8
:1006A00084BDC8BD34C0E730E9F0E83019F1E4306A
:1006B00049F580918000806280938000D0938B0008
:1006C000C0938A0024C084B5806884BDC7BD1FC0A4
:1006D00080918000806880938000D0938900C093CF
:1006E000880015C08091B00080688093B000C093EE
:1006F000B3000DC08091B00080628093B000C093C1
:10070000B40005C0C038D1050CF0B5CFAFCFDF9134
:10071000CF911F9108953FB7F8948091E201909195
:10072000E301A091E401B091E50126B5A89B05C0C5
:100730002F3F19F00196A11DB11D3FBFBA2FA92F60
:10074000982F8827820F911DA11DB11DBC01CD01DD
:1007500043E0660F771F881F991F4A95D1F70895C8
:100760008F929F92AF92BF92CF92DF92EF92FF92C1
:100770006B017C010E948B034B015C01C114D1040D
:10078000E104F104F1F00E948B03DC01CB01881934
:100790009909AA09BB09883E9340A105B10570F3E8
:1007A00021E0C21AD108E108F10888EE880E83E042
:1007B000981EA11CB11CC114D104E104F10419F765
:1007C000DDCFFF90EF90DF90CF90BF90AF909F90E4
:1007D0008F9008952FB7F8946091DE017091DF013A
:1007E0008091E0019091E1012FBF08951F920F9237
:1007F0000FB60F9211242F933F938F939F93AF9334
:10080000BF938091DE019091DF01A091E001B09152
:10081000E1013091DD0126E0230F2D3720F402960F
:10082000A11DB11D05C029E8230F0396A11DB11D0F
:100830002093DD018093DE019093DF01A093E0011E
:10084000B093E1018091E2019091E301A091E40174
:10085000B091E5010196A11DB11D8093E201909335
:10086000E301A093E401B093E501BF91AF919F91A3
:100870008F913F912F910F900FBE0F901F90189561
:100880001F920F920FB60F9211242F933F934F9305
:100890005F936F937F938F939F93AF93BF93EF93E8
:1008A000FF93E0910901F0910A010995FF91EF9101
:1008B000BF91AF919F918F917F916F915F914F9178
:1008C0003F912F910F900FBE0F901F9018951F9280
:1008D0000F920FB60F9211242F933F934F935F9374
:1008E0006F937F938F939F93AF93BF93EF93FF93F8
:1008F000E0910701F09108010995FF91EF91BF91F7
:10090000AF919F918F917F916F915F914F913F91A7
:100910002F910F900FBE0F901F9018958091BC00E3
:1009200087FF76C08091B900887F883211F170F41A
:100930008031E1F030F4882309F466C08830B1F0EA
:1009400008958831B1F0803239F108958034B9F1D9
:1009500028F4803309F1883311F10895803519F1B5
:100960008835C9F1883409F053C050C08091AF0276
:1009700010C09091D1028091D0029817C0F5E091FB
:10098000D10281E08E0F8093D102F0E0E055FD4F5F
:1009900080818093BB0019C08093D20237C08093BE
:1009A000D20284EC2CC0E091D10281E08E0F8093C2
:1009B000D1028091BB00F0E0E055FD4F8083909123
:1009C000D1028091D002981710F484EC01C084E821
:1009D0008093BC000895E091D10281E08E0F809356
:1009E000D1028091BB00F0E0E055FD4F8083809103
:1009F000D30281110BC081E08093AE0284EA809320
:100A0000BC001092D40208951092D2020C94C60138
:100A100008951092D40281E08093D3021092AE0226
:100A200061E082E10E94C00261E083E10E94C002B5
:100A3000E9EBF0E080818E7F808380818D7F8083F1
:100A400082E08093B80084E48093BC000895FB01A9
:100A500060810E94FB1B81E090E00895CF93DF93BB
:100A6000EB010E94F31B888381E090E0DF91CF913E
:100A70000895CF92DF92EF92FF92CF93DF93C42E2F
:100A8000D12CE12CF12CD62AE82AC0E0D0E08091CC
:100A9000E9039091EA03C817D90728F4B701A60122
:100AA000CE010E94D90D2196CB31D10581F78091DD
:100AB000EF039091F003892B41F0DF91CF91FF90EC
:100AC000EF90DF90CF900C94A10CDF91CF91FF902D
:100AD000EF90DF90CF900895362FE42F8C31910561
:100AE0002CF497FF05C080E090E002C08BE190E01D
:100AF0006091E9037091EA038617970740F4422F4B
:100B000050E060E070E05E2B632B0E94D90D809175
:100B1000EF039091F003892B11F00C94A10C089530
:100B200020E030E040E050E060E070E082E090E003
:100B30000E946C0520E030E040E050E060E070E0B2
:100B400081E090E00C946C05EF92FF920F931F935D
:100B5000CF93DF93E42EF12C062F10E0C82FD0E0C6
:100B60009701A801BE0182E090E00E946C05970108
:100B7000A801BE0181E090E0DF91CF911F910F911C
:100B8000FF90EF900C946C050F931F93CF93DF931E
:100B90008C01EB018F3F910509F03CF401308FEFA0
:100BA00018072CF401E01FEF02C00FEF10E0CF3F59
:100BB000D10509F03CF4C1308FEFD8072CF4C1E027
:100BC000DFEF02C0CFEFD0E01093BB010093BA017A
:100BD000D093B901C093B80117FF02C060E001C013
:100BE00061E08EE00E94C002D7FF02C061E001C058
:100BF00060E08FE00E94C002B80117FF03C071954A
:100C00006195710986E00E942C03BE01D7FF03C0E5
:100C100071956195710985E0DF91CF911F910F91D9
:100C20000C942C03CF938091B701811113C08EE6F1
:100C300080936C0110929802C1E0C093990262E027
:100C40000E943C0EC093B70165E070E080E090E048
:100C50000E94B00388E00E949C0121E0892B09F0EA
:100C600020E0822FCF9108951F920F920FB60F921E
:100C700011248F93EF93FF93E0917901F0E08EB50B
:100C8000E455FE4F8083E0917901F0E0E259FE4F98
:100C900080818EBD81E080937801809179018F5FA2
:100CA00080937901809179018B3020F01CBC8CB548
:100CB0008F778CBDFF91EF918F910F900FBE0F90AA
:100CC0001F90189580917801882309F453C08AE019
:100CD0000E949C01019709F04DC01CBC8CB58F7718
:100CE0008CBD8091AC01F091AD017091AE0160912D
:100CF000AF015091B0014091B1013091B20120910A
:100D0000B3019091B401E091B5018F278727862721
:100D1000852784278327822789278E1731F18FEF34
:100D20008093AC018091AC01823891F4109206015D
:100D30006091AE018091AD0170E060587109660F5D
:100D4000771F90E080589109880F991F0E94C40571
:100D500085E68EBD10927901109278018CB5806481
:100D60008CBD8CB580688CBD08958091B5018111D2
:100D7000D9CFD5CF089583E480936C0163E00E94BE
:100D8000900EE8E9F2E0818190E0982F8827228197
:100D900033813093AB01822B08958A3020F0843761
:100DA00018F083E701C08AE080937502809398026F
:100DB00061E086E30C943C0E809374028093980269
:100DC00061E085E30C943C0E80937302809398025B
:100DD00061E084E30C943C0E23E320936C01E8E98A
:100DE000F2E09083818362E083E30C943C0E29E27D
:100DF00020936C01E8E9F2E09083818362E089E26C
:100E00000C943C0E80E090E00C94F70681E2809315
:100E10006C016DE00E94900EE8E9F2E0818190E0C3
:100E2000982F88272281822B9093720280937102DF
:100E3000838190E0982F88272481822B90937002E1
:100E400080936F02858190E0982F88272681822BDE
:100E50009093830180938201878190E0982F882767
:100E60002085822B90938F0180938E01818590E065
:100E7000982F88272285822B90938B0180938A015B
:100E8000838590E0982F88272485822B90937F017B
:100E900080937E01089580E280936C0167E00E9458
:100EA000900EE8E9F2E0818190E0982F8827228176
:100EB000822B9093870180938601838190E0982F05
:100EC00088272481822B90938501809384018581DA
:100ED00090E0982F88272681822B90937B01809326
:100EE0007A0108950F931F93CF93DF938FE680933A
:100EF0006C0185E08093980261E08FE60E943C0ED1
:100F0000C4E0D0E013E102E080ED97E00E94F70634
:100F100044E150E064E170E084E190E00E94390532
:100F200010936C010093980261E083E10E943C0EF3
:100F300064EF71E080E090E00E94B0030E9402073D
:100F400040E050E060E070E080E090E00E94390511
:100F500010936C011092980261E083E10E943C0EB4
:100F600064EF71E080E090E00E94B003219761F6A9
:100F700088EB9BE00E94EC066AE070E080E090E085
:100F80000E94B00340E050E060E070E084E190E057
:100F90000E94390568EE73E080E090E00E94B003A3
:100FA000C4E0D0E080E50E94CD0660E971E080E019
:100FB00090E00E94B0038EE60E94CD0660E971E0E9
:100FC00080E090E00E94B003219761F768EE73E043
:100FD00080E090E00E94B00340E050E064E170E007
:100FE00080E090E00E943905C4E0D0E082E30E94F6
:100FF000DC0660E971E080E090E00E94B0038AE5E1
:101000000E94DC0660E971E080E090E00E94B0039D
:10101000219761F768EE73E080E090E00E94B003F2
:1010200044E150E060E070E080E090E00E9439052B
:10103000C4E0D0E088E20E94E40660E971E080E06C
:1010400090E00E94B00384E60E94E40660E971E04B
:1010500080E090E00E94B003219761F768EE73E0B2
:1010600080E090E00E94B00347E050E067E070E06D
:1010700087E090E0DF91CF911F910F910C9439059B
:101080001F93CF93DF93C8ECD0E012E362E370E0EC
:1010900080E090E00E94B00310936C0162E082E374
:1010A0000E94900E8091990280936E02982F917009
:1010B00090936D0281FB992790F990936C0282FBCB
:1010C000882780F980936B0280916E02882311F04B
:1010D0002197E1F6DF91CF911F9108958F929F9212
:1010E000AF92BF92CF92DF92EF92FF920F931F9336
:1010F000CF93DF9388EE93E00E94EC068EE10E948E
:10110000DC060E94400888EB9BE00E94EC0668E247
:1011100070E080E090E00E94B0030E94BB06EC010A
:101120000E947A0E88E20E94DC0665E570E080E0AD
:1011300090E00E94B0030E94BB06AE01DD0F660B7B
:10114000770B4C01092E000CAA08BB08840E951ED3
:10115000A61EB71E0E947A0E82E30E94DC0665E599
:1011600070E080E090E00E94B0030E94BB068C011A
:10117000092E000C220B330B800E911EA21EB31EF3
:101180000E947A0E8CE30E94DC0665E570E080E048
:1011900090E00E94B0030E94BB068C01092E000C57
:1011A000220B330B800E911EA21EB31E0E947A0EDC
:1011B00086E40E94DC0665E570E080E090E00E9435
:1011C000B0030E94BB068C01092E000C220B330BCE
:1011D000800E911EA21EB31E0E947A0E80E50E9410
:1011E000DC0665E570E080E090E00E94B0030E94BC
:1011F000BB06AC01092E000C660B770B840E951E06
:10120000A61EB71E0E947A0E8AE50E94DC0665E5DE
:1012100070E080E090E00E94B0030E94BB060E9454
:101220007A0E84E60E94DC0665E570E080E090E0DE
:101230000E94B0030E94BB06EC010E947A0E8EE66B
:101240000E94DC0665E570E080E090E00E94B0035B
:101250000E94BB06AE01DD0F660B770B6C01092EF9
:10126000000CEE08FF08C40ED51EE61EF71E0E94F5
:101270007A0E88E70E94DC0665E570E080E090E089
:101280000E94B0030E94BB068C01092E000C220BA9
:10129000330BC00ED11EE21EF31E0E947A0E82E8AE
:1012A0000E94DC0665E570E080E090E00E94B003FB
:1012B0000E94BB068C01092E000C220B330BC00EC2
:1012C000D11EE21EF31E0E947A0E8CE80E94DC06FC
:1012D00065E570E080E090E00E94B0030E94BB06EC
:1012E0008C01092E000C220B330BC00ED11EE21E06
:1012F000F31E0E947A0E86E90E94DC0665E570E026
:1013000080E090E00E94B0030E94BB068C01092E91
:10131000000C220B330BC00ED11EE21EF31E0E94E6
:101320007A0E88EE93E00E94EC068AE50E94DC06C5
:101330000E94400881E08C149D04AE04BF040CF4AC
:1013400080E0DF91CF911F910F91FF90EF90DF90A0
:10135000CF90BF90AF909F908F9008956EE170E016
:1013600080E090E00E94B0038FE180936C016DE01B
:101370000E94900E8091990290E0982F88272091EA
:101380009A02822B909372028093710280919B0249
:1013900090E0982F882720919C02822B90937002D6
:1013A00080936F0280919D0290E0982F8827209172
:1013B0009E02822B909383018093820180919F02F1
:1013C00090E0982F88272091A002822B90938F0184
:1013D00080938E018091A10290E0982F8827209120
:1013E000A202822B90938B0180938A018091A302A9
:1013F00090E0982F88272091A402822B90937F0160
:1014000080937E0180918E0190918F0190938D0148
:1014100080938C0180918A0190918B019093890136
:101420008093880180918201909183019093810142
:101430008093800180917E0190917F0190937D0146
:1014400080937C016FE571E088EF92E00E94B10F1C
:1014500040918E0150918F01052E000C660B770B89
:1014600077FF05C0CB01BA010E94880F05C02AE0B2
:1014700088EF92E00E943F0F6AE671E088EF92E009
:101480000E94B10F40918A0150918B01052E000CF2
:10149000660B770B77FF05C0CB01BA010E94880F5E
:1014A00005C02AE088EF92E00E943F0F68E471E0F7
:1014B00088EF92E00E942A0F64E670E080E090E0FE
:1014C0000C94B0030F931F93CF93DF9362E070E00F
:1014D00080E090E00E94060F162F88EB9BE00E94B0
:1014E000EC06D2E068EB7BE080E090E00E94060F23
:1014F000DC01CB0188519C4FAF4FBF4F0E94F706D4
:1015000060E570E080E090E00E94060F062F60E545
:1015100070E080E090E00E94060FC62F60E570E06A
:1015200080E090E00E94060F462F50E06C2F70E0A4
:10153000802F90E00E94390564E670E080E090E042
:101540000E94060FC62F64E670E080E090E00E94E3
:10155000060F062F64E670E080E090E00E94060F20
:10156000462F602F8C2F0E94A40586E90E94E40676
:10157000112341F086E90E94DC0666E07FEF8AEFE6
:1015800090E007C08EE10E94DC066AEF70E086E022
:101590009FEF0E94C40560E570E080E090E00E944B
:1015A000B0030E94020760E070E080E090E00E94DB
:1015B000C40566E970E080E090E00E94B00340E07E
:1015C00050E060E070E080E090E00E9439058AE53C
:1015D0000E94DC0684E60E94E4066AEF70E080E088
:1015E00090E00E94B003D13011F0D1E07BCF40E019
:1015F00050E060E070E080E090E00E9439054FE04C
:1016000060E080E0DF91CF911F910F910C94A405D1
:101610000F931F93CF93DF93C6E0D0E068EB7BE09E
:1016200080E090E00E94060FDC01CB0188519C4FC6
:10163000AF4FBF4F0E94F70660E570E080E090E09A
:101640000E94060F062F60E570E080E090E00E94A7
:10165000060F162F60E570E080E090E00E94060F14
:10166000462F50E0612F70E0802F90E00E943905F6
:1016700064E670E080E090E00E94060F162F64E6BA
:1016800070E080E090E00E94060F062F64E670E0B4
:1016900080E090E00E94060F462F602F812F0E946D
:1016A000A4056AEF70E086E09FEF0E94C4056CE33A
:1016B00070E080E090E00E94B00368EB7BE080E0A7
:1016C00090E00E94060FDC01CB0188519C4FAF4F88
:1016D000BF4F0E94F70660E570E080E090E00E9456
:1016E000060F062F60E570E080E090E00E94060F94
:1016F000162F60E570E080E090E00E94060F462F14
:1017000050E0612F70E0802F90E00E94390564E680
:1017100070E080E090E00E94060F162F64E670E013
:1017200080E090E00E94060F062F64E670E080E003
:1017300090E00E94060F462F602F812F0E94A40583
:1017400066E07FEF8AEF90E00E94C4056CE370E0F2
:1017500080E090E00E94B003219709F05FCF60E045
:1017600070E080E090E00E94C4050E94020740E023
:1017700050E060E070E080E090E00E9439054FE0CA
:1017800060E080E0DF91CF911F910F910C94A40550
:10179000CF93DF936FEF70E081E09FEF0E94C4056D
:1017A00044E650E060E070E084E690E00E94390595
:1017B00046E962E380E00E94A405C8EED3E0CE01D2
:1017C0000E94F70664E670E080E090E00E94B003BB
:1017D000CC59DF4FC43080E1D80789F760E070E072
:1017E00080E090E00E94C4050E94020740E050E0C3
:1017F00060E070E080E090E00E94390544E160E044
:1018000080E0DF91CF910C94A405CF92DF92EF920C
:10181000FF920F931F93CF93DF936C017A018B019B
:10182000C0E0D0E0CE15DF0589F0D8016D918D01C3
:10183000D601ED91FC910190F081E02DC601099552
:10184000892B11F47E0102C02196ECCFC701DF91F4
:10185000CF911F910F91FF90EF90DF90CF9008955F
:101860000F931F93CF93DF931F92CDB7DEB71091E5
:10187000F7020091FC03113208F052C08091D402AB
:10188000882319F00E948E04F9CF92E09093D4023D
:1018900091E09093D3029FEF9093D2021092D102E5
:1018A0001093D002A7EDB2E020EB32E0F9019E2FB9
:1018B000921B911718F49D919193F9CF1092AF025A
:1018C0002091AF02902F990F922B9093AF0290919D
:1018D000AE02913059F41092AE029091AF02909303
:1018E000BB0095EC9093BC0094EC01C094EE9093F7
:1018F000BC009091D402923029F489830E948E0416
:101900008981F7CF9091D2029F3F79F08091D202E6
:10191000803241F08091D202803331F084E005C002
:1019200081E003C082E001C083E01092D6021092F1
:10193000F7021092D5020F90DF91CF911F910F9176
:1019400008950F931F93CF93DF93CDB7DEB72997F9
:101950000FB6F894DEBF0FBECDBF0E948B0300917F
:10196000F5031091F6032091F7033091F803DC01A1
:10197000CB01801B910BA20BB30BC297A105B10544
:1019800060F3F8948091EB039091EC039A83898340
:10199000E091EF03F091F003DF01119680818987D8
:1019A0008091F403E091F903F091FA0381FFBBC049
:1019B0001B82EB32F10509F058C09BB18091FB030B
:1019C000982B98879BB1809589238F838F818C83F7
:1019D000898587FF02C088858C8358856F814985FA
:1019E0003C812B8189819A815BB9262F3BB900C04C
:1019F00046FD252F6BB900C05BB9362F2BB900C04F
:101A000045FD352F6BB900C05BB9262F3BB900C02F
:101A100044FD252F6BB900C05BB9362F2BB900C030
:101A200043FD352F6BB900C05BB9262F3BB900C011
:101A300042FD252F6BB900C05BB9362F2BB900C012
:101A400041FD352F6BB900C05BB9262F3BB900C0F3
:101A500040FD252F6BB901975BB9362F2BB94D91FE
:101A600047FD352F6BB901F65AC0B59709F08BC009
:101A700095B18091FB03982B988795B18095892328
:101A80008F838F818C83898587FF02C088858C83B3
:101A900058856F8149853C812B8189819A8155B90F
:101AA000262F35B900C046FD252F65B900C055B9B0
:101AB000362F25B900C045FD352F65B900C055B991
:101AC000262F35B900C044FD252F65B900C055B992
:101AD000362F25B900C043FD352F65B900C055B973
:101AE000262F35B900C042FD252F65B900C055B974
:101AF000362F25B900C041FD352F65B900C055B955
:101B0000262F35B900C040FD252F65B9019755B97D
:101B1000362F25B94D9147FD352F65B901F6498717
:101B20003C832B832EC090818091FB03982B988758
:101B30009081809589238F838F818E8388E08D8328
:101B400058856F8149853D812E8189819A81508395
:101B500047FD252F2083262F3A9531F0441F6083BF
:101B600000C000C000C0F3CF6083000038E04D919A
:101B7000019769F7F093FA03E093F90349873D83EE
:101B80002E839A83898378940E948B036093F50354
:101B90007093F6038093F7039093F80329960FB69A
:101BA000F894DEBF0FBECDBFDF91CF911F910F9193
:101BB00008958F929F92AF92BF92CF92DF92EF9251
:101BC000FF924B01AA24BB24F82DC52ED62EE72E5A
:101BD000FF24EC2D342F2091EE03222361F0829E0E
:101BE00040011124F92DC29E60011124ED2D429F68
:101BF000A0011124352FAC01440F551F840F951FF0
:101C00004091EF035091F003840F951F2091F10351
:101C1000DC01A20FB11DFC932091F203DC01A20FA5
:101C2000B11DEC932091F303FC01E20FF11D308311
:101C3000FF90EF90DF90CF90BF90AF909F908F90EC
:101C40000895CF93DF93EB0191E09093D5029BE64B
:101C50009093FC031092D6021092F702682F8DED3C
:101C600093E00E94390268818DED93E00E94390271
:101C7000DF91CF910C94300CEF92FF920F931F9352
:101C8000CF93DF931F92CDB7DEB7062F1092970246
:101C9000109296021092D6021092F70289830E9447
:101CA000090591E09093D50292E39093FC0389811A
:101CB000682F8DED93E00E94390210E0E02EF12CA8
:101CC000812F012E000C990B8E159F0554F4FC01F9
:101CD000E856FD4F60818DED93E00E9439021F5F51
:101CE000EFCF0F90DF91CF911F910F91FF90EF9069
:101CF0000C94300C8C3D95404CF480ED97E00E94A4
:101D0000F70640E060E584E60E94A40569E170E022
:101D100080E090E00E94B0030E9402070C949005BE
:101D2000CF93DF93C62F91E09093D50292E39093E7
:101D3000FC031092D6021092F702682F8DED93E00B
:101D40000E9439020E94300C80E690E00197F1F782
:101D50008091D402882319F00E948E04F9CFC132F9
:101D600008F0C0E281E08093D4028093D3029FEF19
:101D70009093D2021092D1029C0F9093D002809344
:101D8000AF028091AF0284668093AF028091AE0271
:101D9000813041F41092AE028091AF028093BB007B
:101DA00084EC01C084EE8093BC008091D402813029
:101DB00019F40E948E04F9CF8091D1028C1710F48F
:101DC000C091D102A0EBB2E026E732E0F9018E2FFC
:101DD000821B8C1718F48D918193F9CF1092970282
:101DE000C0939602D0E080919702C81759F08DED0C
:101DF00093E00E94E001ED2FF0E0E856FD4F808374
:101E0000DF5FF1CF8D2FDF91CF910895CF93DF93D7
:101E100000D000D0CDB7DEB7611571058105910501
:101E200079F09B01AC0169833A834B835C830E9408
:101E3000BC1B29813A814B815C810E942B1C03C011
:101E400060E070E0CB010F900F900F900F90DF914A
:101E5000CF9108956115710579F0FB010190002083
:101E6000E9F73197AF01461B570BDC01ED91FC916F
:101E70000280F381E02D099480E090E008954F9274
:101E80005F926F927F92EF92FF920F931F93CF9387
:101E9000DF93CDB7DEB7A1970FB6F894DEBF0FBEC4
:101EA000CDBF7C01FA01CB0119A2223008F42AE04F
:101EB0008E010F5D1F4F422E512C612C712CBF01E2
:101EC000A30192010E94091CF901CA0101501109E4
:101ED0006A3014F4605D01C0695CD8016C93232BF7
:101EE000242B252B61F7B801C7010E942A0FA19668
:101EF0000FB6F894DEBF0FBECDBFDF91CF911F911B
:101F00000F91FF90EF907F906F905F904F900895AA
:101F1000CF92DF92EF92FF92CF93DF936B017C0120
:101F2000E091F802F091F9020190F081E02D6DE26C
:101F300088EF92E00995EC0144275527BA014C1926
:101F40005D096E097F092AE088EF92E00E943F0F49
:101F50008C0F9D1FDF91CF91FF90EF90DF90CF907E
:101F600008950C942A0FCF93DF93CDB7DEB7659712
:101F70000FB6F894DEBF0FBECDBF789484B58260F3
:101F800084BD84B5816084BD85B5826085BD85B51D
:101F9000816085BD80916E00816080936E0010929B
:101FA0008100809181008260809381008091810016
:101FB00081608093810080918000816080938000A7
:101FC0008091B10084608093B1008091B000816005
:101FD0008093B00080917A00846080937A00809131
:101FE0007A00826080937A0080917A008E7F80935D
:101FF0007A0080917A00806880937A001092C10004
:102000001092D9031092DA031092DB031092DC03D2
:1020100010929703109298031092990310929A03CA
:102020000E94EA036B017C014B015C0128EB820EEC
:102030002BE0921EA11CB11C0E94EA036C157D05C9
:102040008E059F0528F086169706A806B906A0F704
:1020500088EF92E09093D8038093D703E091080330
:10206000F091090382E08083E0910403F09105037D
:102070001082E0910603F091070388E080831092BC
:102080001003E0910C03F0910D0386E08083E09152
:102090000A03F0910B03808180618083E0910A0341
:1020A000F0910B03808188608083E0910A03F091B6
:1020B0000B03808180688083E0910A03F0910B0319
:1020C00080818F7D80830E94EA03609397037093E1
:1020D00098038093990390939A0369E371E0809148
:1020E000D7039091D8030E94B10F0E94EA036B01BD
:1020F0007C014B015C018AE0880E911CA11CB11C83
:102100000E94EA036C157D058E059F0528F0861652
:102110009706A806B906A0F781E08093AB0361E0BB
:1021200087E00E94F00260E087E00E94C00240E089
:1021300050E060E070E080E090E00E94390560E0EF
:102140008AE00E94F00260E08BE00E94F00260E012
:102150008DE00E94F00261E08CE00E94F00260E0FD
:102160008CE00E94C00262E082E00E94F00260E027
:1021700089E00E94F002E0910803F091090382E0F7
:102180008083E0910403F09105031082E09106033F
:10219000F091070310E1108310921003E0910C03FB
:1021A000F0910D0386E08083E0910A03F0910B0328
:1021B000808180618083E0910A03F0910B0380812C
:1021C00088608083E0910A03F0910B03808180682E
:1021D0008083E0910A03F0910B0380818F7D8083DF
:1021E00060E087E00E94C00261E087E00E94F002A8
:1021F00010929702109296021092D6021092F70255
:102200000E9409051D83BE016B5F7F4F82E20E9421
:10221000210E8FE08C83BE016C5F7F4F80E20E94B5
:10222000210EBE016D5F7F4F89EF93E00E942E0566
:10223000BE016E5F7F4F8AEF93E00E942E05BE01C4
:102240006F5F7F4F8BEF93E00E942E05909101010D
:102250008B81911103C0809301010AC0909101010B
:10226000891731F061E071E089EF93E00E94270562
:10227000909190018A81911103C0809390010AC0CE
:1022800090919001891731F060E971E08AEF93E055
:102290000E942705909100018981911103C08093CC
:1022A00000010AC090910001891731F060E071E0EF
:1022B0008BEF93E00E942705809101018158809364
:1022C000980261E087E30E943C0E80919001815862
:1022D0008093980261E088E30E943C0E80910001A7
:1022E00081588093980261E089E30E943C0E61E985
:1022F000E62E61E0F62E0CEF13E0C8010E94F31BFE
:10230000D7018D937D010F5F1F4F0115B4E01B07AF
:10231000A1F7C0909101D0909201E0909301F090CC
:1023200094012AE939E949E55FE3C701B6010E9452
:102330006C1C87FD12C023E333E343E95FE3C7016D
:10234000B6010E94CA1B181644F0C0920201D09236
:102350000301E0920401F09205010E94020785E169
:1023600080936C0165E00E94900E8091990290E04C
:10237000982F882720919A02822B9093980180931E
:10238000970180919B0290E0982F882720919C02D2
:10239000822B90939601809395010E94EA036093AB
:1023A0009F017093A0018093A1019093A2010E94CC
:1023B000EA0360939A0170939B0180939C01909330
:1023C0009D0181E08093990185E68EBD10926E019A
:1023D00010926F01109270011092710110927201AF
:1023E000109273011092740110927501109276018F
:1023F00080916E01E0916F017091700160917101A7
:1024000050917201409173013091740120917501D6
:10241000909176018E278727862785278427832713
:102420008227892780937701109279011092780191
:102430008CB580648CBD8CB580688CBD40E050E06C
:1024400060E070E080E090E00E94390588EE93E063
:102450000E94F70642E360E088E20E94A40562E37E
:1024600070E080E090E00E94B00380ED97E00E9471
:10247000F70662E370E080E090E00E94B00388EB32
:102480009BE00E94F70662E370E080E090E00E942B
:10249000B00380EA9FE00E94F70664E670E080E007
:1024A00090E00E94B0030E9402070E94900588EB12
:1024B0009BE00E94EC0684E60E94E4068AE50E9406
:1024C000DC068AE00E94CD060E944B0760917A01EB
:1024D00070917B01072E000C880B990B611571051B
:1024E0008105910511F00E94C11B0E94AE0911E007
:1024F0001093980261E081E40E943C0E45E050E0B8
:1025000060E070E080E090E00E9439052AE030E071
:1025100040E050E060E070E08EE090E00E946C05EA
:102520002AE030E040E050E060E070E08AE190E0D6
:102530000E946C050E941206882339F00E947207DF
:1025400010939E018FEF809306010E94EA03672B90
:10255000682B692B41F40E94EA0362307105810502
:10256000910508F41BC10E94EA036093A7017093D0
:10257000A8018093A9019093AA010091A301109151
:10258000A4012091A5013091A6016017710782076F
:10259000930740F46093A3017093A4018093A50175
:1025A0009093A6010091A3011091A4012091A5018F
:1025B0003091A6016B017C01C01AD10AE20AF30A2C
:1025C000970186010A3F11052105310508F4E6C08F
:1025D0006093A3017093A4018093A5019093A60139
:1025E00084EF91E0A0E0B0E08093A3039093A40374
:1025F000A093A503B093A6031092A7031092A8037B
:102600001092A9031092AA0380919B0390919C03BE
:10261000A0919D03B0919E0380939F039093A0038C
:10262000A093A103B093A2030E94EA0360939B03CB
:1026300070939C0380939D0390939E030E94EA03F2
:1026400060939703709398038093990390939A03F0
:102650000E94EA036B017C016BE471E08091D70377
:102660009091D8030E94B10F2AE041E050E060E071
:1026700070E08091D7039091D8030E943F0F62E5EC
:1026800071E08091D7039091D8030E94B10F2AE0A6
:10269000B701A6018091D7039091D8030E943F0F04
:1026A00064E571E08091D7039091D8030E94B10F47
:1026B00080919B0390919C03A0919D03B0919E03F8
:1026C000B701A601481B590B6A0B7B0B2AE08091CE
:1026D000D7039091D8030E943F0F64E571E0809189
:1026E000D7039091D8030E94B10F40919B03509162
:1026F0009C0360919D0370919E0380919F03909134
:10270000A003A091A103B091A203481B590B6A0B2F
:102710007B0B2AE08091D7039091D8030E943F0F52
:1027200066E571E08091D7039091D8030E94B10FC4
:102730000E94EA03AB01BC012AE08091D70390918B
:10274000D8030E943F0F0091D7031091D80368E58A
:1027500071E0C8010E942A0F68E471E0C8010E947C
:102760002A0F0E94EA034B015C016B017C0195E09A
:10277000C90ED11CE11CF11C0E94EA036815790501
:102780008A059B0508F073C40E94EA0360939B03CB
:1027900070939C0380939D0390939E038091060108
:1027A000813009F06BC30E94BB068032934008F071
:1027B00060C26BE070E080E090E00E94060FDC01F8
:1027C000CB010196A11DB11D092E000CAA0BBB0B5C
:1027D000FC013197EB30F10508F04BC2EC5CFF4F88
:1027E0000C94711C88EE93E00E94F70648E760E0C5
:1027F00080E00E94A40562E370E080E090E00E9427
:10280000B00380ED97E00E94F70662E370E080E09D
:1028100090E00E94B00388EB9BE00E94F70662E321
:1028200070E080E090E00E94B00380EA9FE00E94A8
:10283000F70664E670E080E090E00E94B00348E7AD
:1028400068E780E00E94A40562E370E080E090E029
:102850000E94B00380EA9FE00E94F70662E370E006
:1028600080E090E00E94B00388E893E10E94F706C0
:1028700062E370E080E090E00E94B00380E797E1BF
:102880000E94F70664E670E080E090E00E94B003EA
:102890000E9402074AE0DFC10E94080BEAC186E9F4
:1028A00090E00E94EC064CE360E084E60E94A40500
:1028B00080EA9FE00E94F7068FE00E94E4060E94F3
:1028C00040080E94020788EB9BE00E94EC0688E229
:1028D0000E94CD066EEE72E080E090E00E94B003B0
:1028E00086E990E00E94EC0683E70E94CD060E94F4
:1028F000400888E20E94CD060E94400888EB9BE0D9
:102900000E94EC068AE00E94CD0684E60E94E4065E
:1029100044E160E080E00E94A4056CE271E080E0A8
:1029200090E00E94B003A5C10AE010E0212C64E60B
:1029300070E080E090E00E94060F6B017C01B2E342
:10294000CB0ED11CE11CF11C6CEA7DE080E090E034
:102950000E94060F4B015C0168E770E080E090E0A8
:102960000E94060F362E68E770E080E090E00E943B
:10297000060F362F68E770E080E090E03D8B0E9404
:10298000060F262F68E770E080E090E02C8B0E9415
:10299000060F2B013C0168E770E080E090E00E94A8
:1029A000060F6E837F838887998768E770E080E0F1
:1029B00090E00E94060FAB016E817F81C2010E94F0
:1029C00039052C89422F3D89632F832D0E94A40550
:1029D000D501C40188519C4FAF4FBF4F0E94F706ED
:1029E000882799278C199D09222031F0BC01C60146
:1029F0000E94C405212C05C0B6010E94C4052224F2
:102A0000239464E670E080E090E00E94B0030150FF
:102A1000110909F08CCF60E070E080E090E00E9446
:102A2000C405BFC040E060E088EC0E94A40588EEC9
:102A300093E00E94EC0688EE93E00E94F7068CE893
:102A40000E94DC060E94400888E20E94DC060E9488
:102A500040088CE80E94DC060E94400888E20E9440
:102A6000DC060E9440088AE50E94DC0624C040E0A3
:102A700068EC80E00E94A40588EE93E00E94EC06DA
:102A800088EB9BE00E94F70686E90E94E4060E941C
:102A9000400882E30E94E4060E94400886E90E9402
:102AA000E4060E94400882E30E94E4060E94400877
:102AB00084E60E94E4060E94400888EB9BE00E94A6
:102AC000EC064FE060E080E00E94A4050E9402074F
:102AD000D0C00FE010E060EA7FE080E090E00E946C
:102AE000060F6B017C0168E770E080E090E00E94D7
:102AF000060F2B013C0168E770E080E090E00E9447
:102B0000060F6E837F838887998768E770E080E08F
:102B100090E00E94060F9B01AC0168E770E080E046
:102B200090E02C8B3D8B4A8B5B8B0E94060F6A8753
:102B30007B878C879D8768E770E080E090E00E944B
:102B4000060F6E877F87888B998B68E770E080E03F
:102B500090E00E94060F4B015C012C893D894E815B
:102B60005F81B20181E090E00E946C0594014E8586
:102B70005F856A857B8582E090E00E946C05D701C5
:102B8000C60188519C4FAF4FBF4F0E94F70662E3CA
:102B900070E080E090E00E94B0030150110909F05C
:102BA0009ACF0E94020740E050E060E070E080E0D1
:102BB00090E00E94390544E160E080E00E94A405B5
:102BC00058C08CEA9DE00E94F70642E362E382E38C
:102BD0000E94A4056AEF70E08AEF90E00E94C405AD
:102BE00064E670E080E090E00E94B00366E07FEF72
:102BF00086E09FEF0E94C40568E770E080E090E007
:102C00001FC08CED95E00E94F70640E06AE082E389
:102C10000E94A40568E87FEF88E89FEF0E94C40542
:102C200068E770E080E090E00E94B00364E670E046
:102C300084E690E00E94C40566E970E080E090E0E0
:102C40000E94B00360E070E080E090E00E94C40564
:102C50000E9402074FE060E080E00E94A40564EF5C
:102C600071E080E090E05DCE0E94C80B02C00E943F
:102C7000620A0E941206882319F14AE050E06AE0D5
:102C800070E080E090E00E943905E2E0E093060108
:102C900064E670E080E090E00E94B00360E070E0E5
:102CA00080E090E00E94C4050E9402070E94120684
:102CB0008111FCCF64E670E080E090E00E94B003F8
:102CC0000E94620662E370E080E090E00E94B00340
:102CD00065CD0E9462060E94EA0300919F01109157
:102CE000A0012091A1013091A2010053184F2F4F54
:102CF0003F4F601771078207930708F087C00E9453
:102D0000060765E070E080E090E00E94B00340912B
:102D10008E0150918F0180918C0190918D019C01C9
:102D200022533109241735070CF0A8C120918E01D8
:102D300030918F01C296281739070CF09FC140913E
:102D40008A0150918B0180918801909189019C01A9
:102D500022533109241735070CF0C4C220918A018F
:102D600030918B01C296281739070CF0BBC20E9424
:102D7000BB06803D974008F497C00E941206882346
:102D800009F4A7CF4AE050E06AE070E080E090E00C
:102D90000E94390583E08093060140E050E060E046
:102DA00070E080E090E00E94390520E030E04AE0E9
:102DB00050E06AE070E08EE090E00E946C0520E058
:102DC00030E04AE050E06AE070E08AE190E00E9482
:102DD0006C0540E06AE08AE00E94A40564E670E0C9
:102DE00080E090E00E94B00360E070E080E090E05E
:102DF0000E94C4050E9402070E9412068111FCCFA6
:102E000064E670E080E090E00E94B0036CE070E067
:102E100080E090E00E94060F623009F477C06330D2
:102E200009F489C06130A1F468E87FEF88E89FEF7A
:102E30000E94C4056CE271E080E090E00E94B00363
:102E400060E070E080E090E00E94C4050E94C80B42
:102E500062E370E080E090E00E94B0030E94EA0329
:102E600060939F017093A0018093A1019093A201B0
:102E700060E070E080E090E00E94C405809106016F
:102E8000823009F0BAC06AE570E08AE590E00E94FD
:102E9000C4050E94EA0360939F017093A001809390
:102EA000A1019093A20117CF60E070E080E090E074
:102EB0000E94C4050E946E08882329F064E670E031
:102EC0008CE99FEF04C06CE97FEF84E690E00E94FC
:102ED000C4056EEE72E080E090E00E94B00360E016
:102EE00070E080E090E00E94C4050E94EA036093D5
:102EF0009F017093A0018093A1019093A2016AE5C4
:102F000070E08AE590E00E94C40537CF68E87FEF63
:102F100088E89FEF0E94C4056CE271E080E090E0D9
:102F20000E94B00360E070E080E090E00E94C40581
:102F30000E94080B8DCF64EC7FEF84EC9FEF0E9422
:102F4000C40566E970E080E090E00E94B00360E0B4
:102F500070E080E090E00E94C4050E94620A78CF91
:102F600040E06AE08AE00E94A4050E944B0720919D
:102F700086013091870180918401909185018217AB
:102F800093070CF040C06CE870E088E290E00E948B
:102F9000C4050E94BB06803D9740D0F10E941206F6
:102FA000882319F14AE050E06AE070E080E090E0A8
:102FB0000E94390560E070E080E090E00E94C40566
:102FC0000E940207B1E0B093060164E670E080E081
:102FD00090E00E94B0030E9412068111FCCF64E6CB
:102FE00070E080E090E00E94B0030E94620662E31D
:102FF00070E080E090E00E94B00380910601833091
:1030000009F4AECF27C068E270E08CE890E0BFCF53
:1030100060E070E080E090E00E94C4050E946E08CD
:10302000882329F064E670E08CE99FEF04C06CE926
:103030007FEF84E690E00E94C4056EEE72E080E0CF
:1030400090E00E94B00360E070E080E090E00E94B9
:10305000C405A4CF80919E01882331F00E941206FE
:103060008823E1F30E9472070E9469016ECAC616A6
:10307000D706E806F90608F07FCB86CB68E87FEF35
:1030800088E89FEF0E94C40568EC70E080E090E063
:103090000E94B00366EA7FEF84EC9FEF0E94C405B4
:1030A00085E594E00E94F70688E790E00E94EC0630
:1030B0008DE20E94DC068EE10E94E40660E570E08D
:1030C00080E090E00E94060F062F60E570E080E04F
:1030D00090E00E94060F162F60E570E080E090E01F
:1030E0000E94060F462F50E0612F70E0802F90E085
:1030F0000E94390564E670E080E090E00E94060FCF
:10310000162F64E670E080E090E00E94060F062F24
:1031100064E670E080E090E00E94060F462F602F8A
:10312000812F0E94A40593E3C92ED12C0E9406078B
:103130008091820190918301009180011091810121
:103140005801F2E3AF1AB108A816B9060CF042C054
:1031500080918201909183010E5C1F4F801791072F
:10316000CCF580917E0190917F01E0907C01F09000
:103170007D01470122E3821A91088816990654F5C9
:1031800080917E0190917F01A2E3EA0EF11C8E15E1
:103190009F0504F568E070E080E090E00E94B003D5
:1031A000E1E0CE1AD10809F0C1CF0E94020760EB1E
:1031B0007FEF80E590E00E94C40537E4C32ED12C58
:1031C0000E9406078091820190918301A816B9069A
:1031D0000CF440C062E370E082E390E00E94C4051A
:1031E00068EC70E080E090E00E94B00360E070E086
:1031F00080E090E00E94C4050E9402070E94AE0990
:103200008AE50E94DC0684E60E94E4060E944008EB
:1032100088EB9BE00E94EC0640E050E060E070E04C
:1032200080E090E00E94390544E164E180E00E9482
:10323000A4050E94EA0360939F017093A00180930C
:10324000A1019093A2016AE570E08AE590E00E94F6
:10325000C40575CD809182019091830180179107FB
:103260000CF0B8CF80917E0190917F01881699066D
:103270000CF0B0CF80917E0190917F018E159F055B
:103280000CF0A8CF68E070E080E090E00E94B0030E
:10329000F1E0CF1AD10809F093CF60E070E080E050
:1032A00090E00E94C4058AE50E94DC0684E60E9444
:1032B000E4060E94400888EB9BE00E94EC0662E373
:1032C00070E080E090E00E94B00340E050E060E0F9
:1032D00070E080E090E00E9439050E94AE0944E170
:1032E00060E0A4CF68E87FEF88E89FEF0E94C40504
:1032F00068EC70E080E090E00E94B00364EC7FEF47
:1033000086EA9FEF0E94C40585E594E00E94F706D7
:1033100088E790E00E94EC0687E80E94DC068EE1D8
:103320000E94E40660E570E080E090E00E94060FF5
:10333000062F60E570E080E090E00E94060F162FF7
:1033400060E570E080E090E00E94060F462F50E0BC
:10335000612F70E0802F90E00E94390564E670E0F4
:1033600080E090E00E94060F162F64E670E080E097
:1033700090E00E94060F062F64E670E080E090E087
:103380000E94060F462F602F812F0E94A40583E321
:10339000C82ED12C0E940607809182019091830152
:1033A00000918001109181015801B2E3AB1AB1087C
:1033B000A816B9060CF042C0809182019091830159
:1033C0000E5C1F4F80179107CCF580917E01909184
:1033D0007F01E0907C01F0907D014701E2E38E1ACD
:1033E00091088816990654F580917E0190917F018D
:1033F000F2E3EF0EF11C8E159F0504F568E070E016
:1034000080E090E00E94B00321E0C21AD10809F0E8
:10341000C1CF0E94020760E570E080EB9FEF0E9441
:10342000C40527E4C22ED12C0E9406078091820198
:1034300090918301A816B9060CF440C062E370E0D5
:1034400082E390E00E94C40568EC70E080E090E0C8
:103450000E94B00360E070E080E090E00E94C4054C
:103460000E9402070E94AE098AE50E94DC0684E6FB
:103470000E94E4060E94400888EB9BE00E94EC0654
:1034800040E050E060E070E080E090E00E943905AC
:1034900044E164E180E00E94A4050E94EA03609395
:1034A0009F017093A0018093A1019093A2016AE50E
:1034B00070E08AE590E00E94C40559CC80918201B9
:1034C00090918301801791070CF0B8CF80917E0115
:1034D00090917F01881699060CF0B0CF80917E0103
:1034E00090917F018E159F050CF0A8CF68E070E0E9
:1034F00080E090E00E94B00381E0C81AD10809F092
:1035000093CF60E070E080E090E00E94C4058AE51F
:103510000E94DC0684E60E94E4060E94400888EBD4
:103520009BE00E94EC0662E370E080E090E00E9485
:10353000B00340E050E060E070E080E090E00E9486
:1035400039050E94AE0944E160E0A4CF8091EF0309
:103550009091F003009711F00E940C1D60E08091A3
:10356000ED030C94F0021092FB021092FA0288EE26
:1035700093E0A0E0B0E08093FC029093FD02A09362
:10358000FE02B093FF0229E131E03093F90220936B
:10359000F80225EC30E0309305032093040324EC7B
:1035A00030E0309307032093060320EC30E03093A3
:1035B00009032093080321EC30E030930B032093A0
:1035C0000A0322EC30E030930D0320930C0326EC29
:1035D00030E030930F0320930E03109211031092EA
:1035E0001203109213031092140310929B03109273
:1035F0009C0310929D0310929E0310929F031092C1
:10360000A0031092A1031092A2031092A3031092A0
:10361000A4031092A5031092A6031092A703109280
:10362000A8031092A9031092AA031092E00310922B
:10363000DF038093E1039093E203A093E303B0934D
:10364000E4038BE291E09093DE038093DD038BE152
:1036500090E09093EA038093E90381E590E09093F2
:10366000EC038093EB0387E08093ED031092EE036D
:1036700083E08093F4031092F5031092F603109206
:10368000F7031092F803EBECF0E0E491F0E0EE0FBA
:10369000FF1FE654FF4F859194919093FA03809316
:1036A000F903EDEAF0E0E491E093FB0381E590E0BB
:1036B0000E94771C9093F0038093EF03009729F00A
:1036C00021E5FC0111922A95E9F781E08093F1034D
:1036D0001092F20382E08093F30308958F929F92F9
:1036E000AF92BF92CF92DF92EF92FF92CF93DF9390
:1036F000EC01688179818A819B8161157105810561
:10370000910521F464E279ED8BE597E02DE133EF4B
:1037100041E050E00E942B1C49015A019B01AC0181
:10372000A7EAB1E40E944A1C6B017C01ACEEB4EF45
:10373000A50194010E94581CDC01CB018C0D9D1D3C
:10374000AE1DBF1DB7FF03C00197A109B048888314
:103750009983AA83BB83BC01CD019F77DF91CF9171
:10376000FF90EF90DF90CF90BF90AF909F908F90A1
:1037700008950E946E1B08958BE091E00E946E1BDD
:10378000089560930B0170930C0180930D01909349
:103790000E0108950E94CF1B08F481E00895990F4F
:1037A0000008550FAA0BE0E8FEEF16161706E8070B
:1037B000F907C0F012161306E407F50798F0621B2C
:1037C000730B840B950B39F40A2661F0232B242B01
:1037D000252B21F408950A2609F4A140A6958FEF20
:1037E000811D811D0895F999FECF92BD81BDF89A82
:1037F000992780B50895262FF999FECF1FBA92BD5B
:1038000081BD20BD0FB6F894FA9AF99A0FBE0196C1
:103810000895A1E21A2EAA1BBB1BFD010DC0AA1F11
:10382000BB1FEE1FFF1FA217B307E407F50720F029
:10383000A21BB30BE40BF50B661F771F881F991FA4
:103840001A9469F760957095809590959B01AC01ED
:10385000BD01CF010895052E97FB1EF400940E9430
:10386000421C57FD07D00E94091C07FC03D04EF4F0
:103870000C94421C50954095309521953F4F4F4FE9
:103880005F4F089590958095709561957F4F8F4F0C
:103890009F4F08950E945D1CA59F900DB49F900DB1
:1038A000A49F800D911D11240895B7FF0C944A1C0C
:1038B0000E944A1C821B930B0895A29FB001B39FE4
:1038C000C001A39F700D811D1124911DB29F700D29
:1038D000811D1124911D08950E94CF1B08F48FEFC4
:1038E0000895EE0FFF1F0590F491E02D0994CF93FA
:1038F000DF938230910510F482E090E0E091FF03C5
:10390000F091000420E030E0C0E0D0E0309711F109
:103910004081518148175907C0F04817590761F491
:1039200082819381209719F09B838A832BC0909387
:1039300000048093FF0326C02115310519F04217BA
:10394000530718F49A01BE01DF01EF010280F381F1
:10395000E02DDCCF2115310509F1281B390B24306E
:10396000310590F412968D919C9113976115710514
:1039700021F0FB019383828304C090930004809321
:10398000FF03FD01329644C0FD01E20FF31F819356
:103990009193225031092D933C933AC02091FD031D
:1039A0003091FE03232B41F420911101309112013B
:1039B0003093FE032093FD0320910F0130911001FD
:1039C0002115310541F42DB73EB7409113015091B7
:1039D0001401241B350BE091FD03F091FE03E21767
:1039E000F307A0F42E1B3F0B2817390778F0AC0122
:1039F0004E5F5F4F2417350748F04E0F5F1F5093FF
:103A0000FE034093FD038193919302C0E0E0F0E058
:103A1000CF01DF91CF9108950F931F93CF93DF9341
:103A2000009709F48CC0FC01329713821282009136
:103A3000FF03109100040115110581F420813181EB
:103A4000820F931F2091FD033091FE032817390741
:103A500079F5F093FE03E093FD0371C0D80140E0D7
:103A600050E0AE17BF0750F412962D913C9113977A
:103A7000AD012115310509F1D901F3CF9D01DA011D
:103A80003383228360817181860F971F821793078A
:103A900069F4EC0128813981260F371F2E5F3F4FD3
:103AA000318320838A819B8193838283452B29F4F0
:103AB000F0930004E093FF0342C01396FC93EE934F
:103AC0001297ED01499159919E01240F351FE2177C
:103AD000F30771F480819181840F951F02961196EE
:103AE0009C938E938281938113969C938E931297CD
:103AF000E0E0F0E0D80112968D919C911397009729
:103B000019F0F8018C01F6CF8D919C9198012E5FF0
:103B10003F4F820F931F2091FD033091FE03281722
:103B2000390769F4309729F4109200041092FF03CA
:103B300002C0138212821093FE030093FD03DF91F3
:103B4000CF911F910F91089581E090E0F8940C942B
:103B5000A91D10E0CDE6D0E004C0FE010E94711C5A
:0C3B60002196CE36D107C9F7F894FFCFAC
:103B6C00FF190000803F01C501C5010100000000E4
:103B7C000001048000000000000001050C980047C3
:103B8C0001C900A700BB00000000003902FC016362
:103B9C0002D001F401E001D101564D4450565F3181
:103BAC007C315F564D4450560D0A00564D445045DD
:103BBC005F003A323A007C005F564D44504500623B
:0C3BCC006173656C696E653A20000900A9
:107800000C94343C0C94513C0C94513C0C94513CE1
:107810000C94513C0C94513C0C94513C0C94513CB4
:107820000C94513C0C94513C0C94513C0C94513CA4
:107830000C94513C0C94513C0C94513C0C94513C94
:107840000C94513C0C94513C0C94513C0C94513C84
:107850000C94513C0C94513C0C94513C0C94513C74
:107860000C94513C0C94513C11241FBECFEFD8E036
:10787000DEBFCDBF11E0A0E0B1E0EAE8FFE702C063
:1078800005900D92A230B107D9F712E0A2E0B1E065
:1078900001C01D92AD30B107E1F70E942D3D0C945F
:1078A000C33F0C94003C982F95959595959595958B
:1078B000905D8F708A307CF0282F295A8091C0000B
:1078C00085FFFCCF9093C6008091C00085FFFCCF60
:1078D0002093C6000895282F205DF0CF982F809127
:1078E000C00085FFFCCF9093C6000895EF92FF92F1
:1078F0000F931F93EE24FF2487018091C00087FD22
:1079000017C00894E11CF11C011D111D81E2E8164D
:1079100081EAF80687E0080780E0180770F3E09135
:107920000401F091050109958091C00087FFE9CF1E
:107930008091C6001F910F91FF90EF9008950E94D3
:10794000763C982F8091C00085FFFCCF9093C600B5
:1079500091362CF490330CF09053892F089597555D
:10796000892F08951F930E949F3C182F0E949F3CCF
:107970001295107F810F1F9108951F93182F882350
:1079800021F00E94763C1150E1F71F9108951F935A
:10799000182F0E94763C803249F0809103018F5F5E
:1079A000809303018530C1F01F9108958091C0003C
:1079B00085FFFCCF84E18093C6008091C00085FFE5
:1079C000FCCF1093C6008091C00085FFFCCF80E102
:1079D0008093C6001F910895E0910401F091050184
:1079E00009951F9108950E94763C803241F0809164
:1079F00003018F5F80930301853081F008958091AA
:107A0000C00085FFFCCF84E18093C6008091C00058
:107A100085FFFCCF80E18093C6000895E0910401CA
:107A2000F09105010995089548EC50E08823A1F0F4
:107A30002D9A28EE33E0FA013197F1F721503040CA
:107A4000D1F72D9828EE33E0FA013197F1F7215064
:107A50003040D1F7815061F708953F924F925F9285
:107A60006F927F928F929F92AF92BF92CF92DF924E
:107A7000EF92FF920F931F93CF93DF93000082E06A
:107A80008093C00080E18093C4001092C50088E11B
:107A90008093C10086E08093C2005098589A259A3E
:107AA00081E00E94143D24E1F22E9EE1E92E85E959
:107AB000D82E0FE0C02E10E1B12EAA24A394B1E479
:107AC0009B2EA6E58A2EF2E57F2EE0E26E2E79E46B
:107AD000572E63E5462E50E5352E0E94763C8033C6
:107AE000B1F18133B9F1803409F46FC0813409F404
:107AF00076C0823409F485C0853409F488C08035A5
:107B000031F1823521F1813511F1853509F485C0D6
:107B1000863509F48DC0843609F496C0843709F49B
:107B200003C1853709F472C1863709F466C08091B4
:107B300003018F5F80930301853079F6E0910401A2
:107B4000F091050109950E94763C803351F60E9420
:107B5000F33CC3CF0E94763C803249F78091C0004D
:107B600085FFFCCFF092C6008091C00085FFFCCF5E
:107B70009092C6008091C00085FFFCCF8092C60025
:107B80008091C00085FFFCCF7092C6008091C0003C
:107B900085FFFCCF6092C6008091C00085FFFCCFBE
:107BA0005092C6008091C00085FFFCCF4092C60075
:107BB0008091C00085FFFCCF3092C6008091C0004C
:107BC00085FFFCCFB092C60088CF0E94763C8638F5
:107BD00008F4BDCF0E94763C0E94F33C7ECF0E9409
:107BE000763C803809F49CC0813809F40BC1823896
:107BF00009F430C1883909F48FC080E00E94C73C85
:107C00006CCF84E10E94BD3C0E94F33C66CF85E0CE
:107C10000E94BD3C0E94F33C60CF0E94763C809362
:107C200006010E94763C809307010E94F33C55CFE9
:107C30000E94763C803309F411C183E00E94BD3C70
:107C400080E00E94C73C49CF0E94763C80930902A5
:107C50000E94763C8093080280910C028E7F809374
:107C60000C020E94763C853409F409C18091080217
:107C700090910902892B89F000E010E00E94763C87
:107C8000F801E85FFE4F80830F5F1F4F809108026D
:107C9000909109020817190788F30E94763C8032F8
:107CA00009F045CF80910C0280FFF5C0609106017C
:107CB00070910701660F771F7093070160930601AB
:107CC000A0910802B09109021097C9F0E8E0F1E034
:107CD0009B01AD014E0F5F1FF999FECF32BD21BD53
:107CE000819180BDFA9AF99A2F5F3F4FE417F5070B
:107CF00099F76A0F7B1F70930701609306018091CB
:107D0000C00085FFFCCFF092C6008091C00085FFC7
:107D1000FCCFB092C600E1CE83E00E94C73CDDCE2E
:107D200082E00E94C73CD9CE0E94763C8093090233
:107D30000E94763C80930802809106019091070191
:107D4000880F991F90930701809306010E94763C4B
:107D5000853409F49AC080910C028E7F80930C02C6
:107D60000E94763C803209F0B8CE8091C00085FF39
:107D7000FCCFF092C600A0910802B09109021097C2
:107D8000C1F180910C02082F0170182F1695117007
:107D9000E0910601F0910701AF014F5F5F4FBA011B
:107DA00020E030E00023B1F4112339F49491809164
:107DB000C00085FFFCCF9093C6002F5F3F4FCB01E3
:107DC0000196FA012A173B0780F4BC014F5F5F4F11
:107DD000002351F3F999FECFF2BDE1BDF89A90B5B9
:107DE0008091C00085FFFCCFE6CF709307016093C0
:107DF00006018091C00085FDE5CE8091C00085FF21
:107E0000F8CFE0CE81E00E94C73C67CE0E94763C6E
:107E1000803209F08CCE8091C00085FFFCCFF092BB
:107E2000C6008091C00085FFFCCFE092C600809123
:107E3000C00085FFFCCFD092C6008091C00085FFB6
:107E4000FCCFC092C6008091C00085FFFCCFB092ED
:107E5000C60043CE80E10E94C73C3FCE0E94763CE4
:107E60000E94763C182F0E94763C112309F483C0AF
:107E7000113009F484C08FE00E94C73C2ECE80915F
:107E80000C02816080930C02F1CE80910C02816023
:107E900080930C0265CF809107018823880F880B9F
:107EA0008A2180930B028091060190910701880F2F
:107EB000991F90930701809306018091080280FF2B
:107EC00009C08091080290910902019690930902DD
:107ED00080930802F894F999FECF1127E0910601EA
:107EE000F0910701C8E0D1E0809108029091090269
:107EF000103091F40091570001700130D9F303E084
:107F000000935700E8950091570001700130D9F3B4
:107F100001E100935700E8950990199000915700EE
:107F200001700130D9F301E000935700E8951395F3
:107F3000103498F011270091570001700130D9F3E7
:107F400005E000935700E89500915700017001305B
:107F5000D9F301E100935700E8953296029709F0B2
:107F6000C7CF103011F00296E5CF11248091C000E8
:107F700085FFC5CEC8CE8EE10E94C73CAECD85E957
:0A7F80000E94C73CAACDF894FFCF81
:027F8A00800075
:040000030000780081
:00000001FF